:020000040800F2
:1000000058070020AD010008B5010008B70100083D
:10001000B9010008BB010008BD0100080000000094
:10002000000000000000000000000000BF01000808
:10003000C101000800000000C3010008D11300083E
:10004000C7010008C7010008C7010008C701000870
:10005000C7010008C7010008C7010008C701000860
:10006000C7010008C7010008C7010008C701000850
:10007000C7010008C7010008C7010008C701000840
:10008000C7010008C7010008C7010008C701000830
:10009000C7010008C7010008C7010008C701000820
:1000A000C7010008C7010008C7010008C701000810
:1000B000C7010008C7010008C7010008C701000800
:1000C000C7010008C7010008C7010008C7010008F0
:1000D000C7010008C7010008C7010008C7010008E0
:1000E000C7010008C7010008C701000800F002F8B6
:1000F00000F04DF80AA090E8000C82448344AAF175
:100100000107DA4501D100F042F8AFF2090EBAE872
:100110000F0013F0010F18BFFB1A43F0010318473B
:10012000BC290000DC290000103A24BF78C878C13F
:10013000FAD8520724BF30C830C144BF04680C60ED
:10014000704700000023002400250026103A28BF35
:1001500078C1FBD8520728BF30C148BF0B60704739
:10016000662902F02884642900F07E80732900F05B
:10017000D883002070471FB500F0D8FB0400002092
:10018000002102F03FF9E0601FBD10B510BD00F086
:10019000CDFC1146FFF7EFFF01F010FB00F0EBFC88
:1001A00003B4FFF7F2FF03BC00F02EFD09488047BF
:1001B00009480047FEE7FEE7FEE7FEE7FEE7FEE749
:1001C000FEE7FEE7FEE7FEE704480549054A064B61
:1001D00070470000E1130008ED00000858010020FE
:1001E0005807002058030020580300200FB41CB506
:1001F000074B06AA7B4469460090059800F067FB10
:100200000020694600F076FB1CBC5DF814FB000082
:10021000FD06000070B50C460546012A05D0287879
:10022000800600D5EA69002302E0012305E05B1C9B
:10023000934202D2E05C0028F9D1A869E618C01AFE
:10024000A861286A184428622846AFF3008004E0B9
:10025000D5E9012114F8010B9047B442F8D32846A0
:10026000AFF3008070BD00002DE9F0410646002488
:1002700010687529314616A510D0AFF3008000280C
:1002800002DA404213A507E031688A0701D512A5BA
:1002900002E0490704D511A5012401E0AFF3008075
:1002A00000210A2206F1240709E0B0FBF2FCB0FBB2
:1002B000F2F302FB1C00303078541846491C002829
:1002C000F3D123462A463046BDE8F04100F092B80B
:1002D000000000002D0000002B00000020000000A6
:1002E0002DE9F0474FF0000A89460446C0F820A0E7
:1002F0002046E1688847002876D0252806D0D4E932
:1003000001219047206A401C2062F1E7E168204605
:1003100000258847C4F81CA006460027C4F818A08A
:100320002A2E09D0304601F070F838B304EB870864
:10033000303EC8F8186019E059F8041B204604EB59
:1003400087029161E1688847012F064618D1E0696C
:10035000002820DA25F020051DE0D8F8180000EB71
:10036000800006EB40003038C8F818002046E168ED
:100370008847064601F049F80028EED1012F0AD03F
:100380002E2E08D12046E16888477F1C0646022FA2
:1003900045F02005C4DBA069002803DA404245F09F
:1003A0000105A061E80701D025F01005B6B1A6F15E
:1003B0004100192802D8203645F400654A463146E6
:1003C000204625604D46FFF7CBFE58B1012806D0E8
:1003D000ED1D25F0070000F1080989E704E005F1AB
:1003E000040985E730468AE7206ABDE8F087704750
:1003F000704770472DE9F0470D46994692460446EE
:1004000000F124080168880604D5E06921F0100194
:10041000216000E00120A84201DD471B00E0002729
:10042000A1697A1902EB0900081AA0612078C006B8
:1004300002D42046AFF30080002608E0D4E9012171
:100440001AF806009047206A401C761C20624E4530
:10045000F4DB2078C0060AD52046AFF3008006E022
:10046000D4E9012130209047206A401C2062381EC8
:10047000A7F10107F4DC07E0D4E9012118F8050031
:100480009047206A401C2062281EA5F10105F3DC7C
:100490002046AFF300802078000602D50220BDE898
:1004A000F0870120FBE770472DE9FF4F0C461E4601
:1004B0004FF0FF378BB0D2E90001DDF860800A9081
:1004C0008A46C1F30A5505B93D46002108464FF05A
:1004D0000000BAF1000F00F4400005DA00EB8000E4
:1004E0004FF4400101EA50004FEA9059B9F1010F71
:1004F00000DDB9460A9850EA4A000ED044F6105082
:10050000A5F2FF3545432F14B8F1000F1ED07542F8
:10051000291E1EDDC9F100021CE0B8F1010F4FF0E9
:10052000000001D0302103E0F24305E02154401CDB
:10053000B042FBDB30460022002121540B99C1F868
:100540000880C1E900200FB0BDE8F08FBD1B6D1C15
:10055000DEE74A4600DA694206A800F071FA06AB07
:1005600093E8070003AB83E8070050460A9900F0C0
:1005700052FB8DE80700A0F500501F38009003984B
:10058000002D0ADD42F21F014A460844002303A958
:100590000390684600F0BBFD09E0A0F500504A4614
:1005A0001F38002303A90390684600F0C5FD8DE8BD
:1005B00007000004000C03D04FF0FF30410800E0BA
:1005C0001046B8F1000F03D00022009215461EE03D
:1005D000751E05D400F0AEF9303262556D1EF9D5A6
:1005E000B3460122084302D000227F1C04E0207899
:1005F000302801D100227F1E002A099784D01DE0F7
:10060000112D07DA00F096F9303262556D1C50EA70
:100610000102F5D1084302D00098C8B10EE00021D4
:10062000681E05E0235C625C63542254401E491C32
:100630008142F7DBAB46A81B401E0990002004F85E
:100640000B000B98099AC0F80880C0E9002B7AE7E4
:1006500011264FF0000857E72DE9F04F8846044671
:10066000D21D22F0070191B0D1E90001CDE90A01C4
:1006700000F0B7FE02460B98C00F01D02D2007E016
:100680002068810701D52B2002E0202101EAC0006B
:10069000032A099001D0072A05DB0346414620467C
:1006A00000F08EF90BE12078800601D5E06900E0CA
:1006B0000620B8F1650F814606D0B8F1660F18D054
:1006C000B8F1670F70D131E00020B9F1110F00903F
:1006D00001DB112301E009F101030AAA01A90CA819
:1006E000FFF7E2FEDDE90C70002609F10105834603
:1006F00047E001204B4600904FF000470AAA01A9AD
:100700000CA8FFF7D1FEDDE90DB00C995D4600267F
:1007100010B909F101000D18B9EB050003D4C0F1BF
:10072000FF3609F10105A5EB09002BE0B9F1010F36
:1007300001DA4FF001090020B9F1110F009048468D
:1007400001DD112300E003460AAA01A90CA8FFF766
:10075000ABFEDDE90C704D4600268346207800078D
:100760000AD4AB4500DA5D4601A8012D04DD41192C
:1007700011F8011C302907D04F4502DA17F1040F98
:1007800004DA012082460FE06D1EEEE7002F02DC46
:10079000ED1B3E4403E0781CA84200DD7D1CB81B25
:1007A00000F1010A4FF000472078000703D4AA4562
:1007B00001DB4FF0FF3A0021B7F1004F0DF1430884
:1007C0008DF8431024D002202B23002F01DA7F4222
:1007D0002D230A21021EA0F1010000DC5FB197FB6E
:1007E000F1FC97FBF1F201FB1C7C17460CF1300C7D
:1007F00008F801CDEEE7A8F1010003702188090592
:1008000001D5452100E06521A0F1010800F8011C97
:1008100009980FA9A1EB0807FF1D00B1012041199C
:1008200001EBEA70A1693844081A401EA0612078E3
:10083000C00602D42046AFF30080099828B1D4E95D
:1008400001219047206A401C20622078C00622D5F2
:100850002046AFF300801EE0002E04DBB34502DD2E
:1008600001A8805D00E03020D4E901219047206A92
:10087000401C2062761CAAF101005FEA000A0AD13E
:1008800000F054F8C0680168405CD4E90121904749
:10089000206A401C2062281EA5F10105DCDC07E06F
:1008A000D4E9012118F8010B9047206A401C20620E
:1008B000381EA7F10107F3DC2046AFF300800320C8
:1008C00011B041E601694A1C02610878704700B521
:1008D0008FB0CDE901310021059105497944CDE979
:1008E000031011466846FFF7FBFC0FB000BD000087
:1008F000E5FFFFFF0A6802F8010B0A60704710B5B8
:10090000436913B1AFF3008001E0FFF783FC0120DE
:1009100010BD127800F124010A7000224A700122F1
:10092000EDE711684FF0FF32E9E70000004870473B
:100930001801002030B5B0F10A024FEA900E71F1B3
:1009400000034EEA817EB0EB0E0061EB91014FEAAD
:10095000101E4EEA017E10EB0E0041EB11114FEA22
:10096000102E4EEA016E10EB0E0041EB11214FEA02
:10097000104E4EEA014E10EB0E0041EB11414018B3
:1009800041F100014FEAD00040EA41704FEAD10145
:1009900010EB80054FEA810444EA907444EB0104B3
:1009A0006D1944EB0404521BA3414FF0000348BFF0
:1009B0000A3200D530BD401C41F1000130BD0000BD
:1009C0002DE9F0411F46044603260168072A01F479
:1009D000006004DB08B116A505E016A503E008B128
:1009E00015A500E015A521F010002060A069C01E2B
:1009F000A0610FB1401EA0612046AFF300804FB14F
:100A0000D4E9012138469047206A401C2062C01C6E
:100A1000206206E0206AFAE7D4E9012115F8010B0B
:100A20009047761EF8D22046AFF30080BDE8F081F3
:100A30004E414E006E616E00494E4600696E660082
:100A40002DE9F047814616468AB0354878440DC8EE
:100A50008DE80D0032487844801C03AC0DC884E852
:100A60000D0041F69B300844372190FBF1F290FBDA
:100A7000F1F5A5F1800501FB12041B3C02D564428F
:100A8000012000E00020DFF898A080460027FA440B
:100A9000AAF1BE0A0EE0E0070AD03246684607EB2C
:100AA000470101230AEB810100F046FB8DE80700B6
:100AB00064107F1C002CEED1194F7F44AE3F19E02B
:100AC000E80715D007EB04100DF1180A90E80E00A6
:100AD0008AE80E00C068F04201D1981908903246A9
:100AE000012306A903A800F027FB03AB83E8070056
:100AF0006D10641C002DE3D14FF0010332466946AE
:100B0000B8F1000F03A802D000F001FB01E000F0F3
:100B100013FBC9E90001C9F808200AB0BDE8F08755
:100B2000E81F000000487047F80000207546FFF7F6
:100B3000F9FFAE4605006946534620F0070085469A
:100B400018B020B5FFF740FBBDE820404FF000068D
:100B50004FF000074FF000084FF0000B21F00701A5
:100B6000AC46ACE8C009ACE8C009ACE8C009ACE8E8
:100B7000C0098D46704710B50446AFF3008020468B
:100B8000BDE81040FFF70CBB4FF0013C50F8042BC0
:100B900051F8043B9A4221D1A2EB0C03934313EA90
:100BA000CC1317D150F8042B51F8043B9A4215D1BD
:100BB000A2EB0C03934313EACC130BD150F8042B94
:100BC00051F8043B9A4209D1A2EB0C03934313EA78
:100BD000CC13DBD04FF00000704700BFD01A01BA31
:100BE000B1FA81F101F0180122FA01F0CB40C1F114
:100BF0002001DBB2C0B2C01A2CFA01F3D11A914322
:100C000011EAC311E6D1704701491820ABBEFEE7D7
:100C10002600020070475FEA400C08BF91F0000F09
:100C20004FEA8C234FEAC12243EA51514FEA1C504C
:100C300018BF00F5F0404FEA300018BF41F0004106
:100C40005FEA6C5C00F02980BCF1FF3F08BF40F018
:100C500080407047130C06BF12044FF0100C4FF089
:100C6000000C130E04BF12020CF1080C130F04BF8A
:100C700012010CF1040C930F04BF92000CF1020C52
:100C8000D30F04BF52000CF1010C11464FF00002CB
:100C9000A0F11F00A0EB0C00704711F0004F08BF3F
:100CA000704731F000413FF4D5AF0B0C06BF09048B
:100CB0004FF0100C4FF0000C0B0E04BF09020CF1AA
:100CC000080C0B0F04BF09010CF1040C8B0F04BFBF
:100CD00089000CF1020CCB0F04BF49000CF1010C90
:100CE000CCF12003A0EB0C0022FA03F302FA0CF281
:100CF00041EA030100F10100704720F07F4C80EAD7
:100D0000030023F07F47ACEB070303F57C5300F0AF
:100D1000004003F1FF032DE980494FEA154B09B468
:100D20004FEA144325EA0B4E24EA03480FF2042647
:100D300006EB132749083E785FEA320203FB066799
:100D4000C7F5000707FB06F64FEA54374FEAD646C9
:100D500006F1020607FB066CCCF1005C4FEA1C476B
:100D60002CEA074C07FB06F40CFB06F504EB1546D2
:100D70004FEA961634BF00204FF000404FEAD137BB
:100D800006FB07FC4FEA1C4C0CFB0BF7D21B03FBCA
:100D90000CF761EB07010CFB0EF7B0EB074072EBB1
:100DA00017420CFB08F734BFA2EB0742B2EB074235
:100DB00061EB17414FEA0C444FEA910706FB07FC31
:100DC0004FEA1C4C0CFB0BF7B0EBC74072EB5732F1
:100DD00003FB0CF734BFA2EBC742B2EBC74261EB97
:100DE00057310CFB0EF7B0EBC70072EB57720CFBE0
:100DF00008F734BFA2EBC702B2EBC70261EB577131
:100E0000039F4FEA816141EA921104EBCC044FEA5F
:100E1000D1374FEA826206FB07FC42EA90124FEAA2
:100E200080604FEA1C4C0CFB0BF7D21B03FB0CF74A
:100E300061EB07010CFB0EF7B0EB074072EB1742BA
:100E40000CFB08F734BFA2EB0742B2EB074261EBA1
:100E500017414FEA8C554FEA910704EB9C2406FB9F
:100E600007FC4FEA1C4C0CFB0BF7B0EBC74072EBD6
:100E7000573203FB0CF734BFA2EBC742B2EBC742B9
:100E800061EB57310CFB0EF7B0EBC70072EB5772FA
:100E90000CFB08F734BFA2EBC702B2EBC70261EB51
:100EA000577115EB4C254FEA816141EA92114FEAE7
:100EB00082624FEAD13742EA901206FB07FC44F106
:100EC00000044FEA80604FEA1C4C0CFB0BF7D21B6E
:100ED00003FB0CF761EB07010CFB0EF7B0EB0740CF
:100EE00072EB17420CFB08F734BFA2EB0742B2EBE0
:100EF000074261EB174115EB1C154FEA813141EABE
:100F000092414FEA823242EA90424FEA80304FEA01
:100F10000C7644F1000448EA03434EEA0B484FF0D4
:100F2000000EB2EB080C71EB030724BF6246394692
:100F30004EEB0E0E4FF0000B0018524149414BEBA7
:100F40000B0BB2EB080C71EB03077BF1000B24BF1A
:100F5000624639464EEB0E0E4FF0000B0018524120
:100F600049414BEB0B0BB2EB080C71EB03077BF128
:100F7000000B24BF624639464EEB0E0E51EA0207C3
:100F800018BF46F0010616EB0E7655F1000254F13B
:100F9000000103D5BDE88901BDE80088BDE88901ED
:100FA000BDE80048B619524141EB0101A3F101032C
:100FB000704780807F7E7D7C7B7A797877767675C6
:100FC0007473727171706F6E6E6D6C6C6B6A6A693E
:100FD0006868676666656464636362616160605FD8
:100FE0005F5E5E5D5D5C5C5B5B5A5A595958585751
:100FF00057565655555554545353525252515150B9
:1010000050504F4F4F4E4E4D4D4D4C4C4C4B4B4B0B
:101010004A4A4A4949494848484747474746464651
:10102000454545444444444343434342424242418C
:101030004141002B9C4630D477002BD01CB54FEAA1
:10104000370703B44FF010004FF01001BAF1000F52
:1010500006D0BCF1000FDCBF40F0080040F00801F2
:101060004FF000000FBCBDE810400BF1010BBBF1CD
:10107000010F08BF5FEA170722BF12F1010211F149
:1010800001014FF0004143F1000300F0004043EA4A
:1010900000007047F9D35708D0E746EA064613F137
:1010A000400F4FEA16461FDD13F1200FDFBF164336
:1010B0000A46002120335B42BED0C3F1200746EA36
:1010C000064602FA07F74FEA164646EA0706C3F154
:1010D000200722FA03F201FA07F721FA03F14FF091
:1010E000000342EA0702A7E746EA020646EA064686
:1010F0004FEA164646EA0106BCBF46EA0646360CEB
:101100004FF000034FF000024FF0000194E72DE98B
:10111000804C9A46934670B491E8380007C831EA8B
:10112000400C48BF34EA430C03D5FFF7E6FDFFF758
:1011300080FFF0BCBDE8008C2DE9804C9A469346B8
:1011400070B491E8380007C810F0804F08BF13F062
:10115000804F03D100F005F8FFF76BFFF0BCBDE84E
:10116000008C20F07F4780EA030023F07F4C07EBE0
:101170000C03A3F57C5300F00040A3F1FE0392F0B2
:10118000000F00F0B38095F0000F00F077802DE99C
:1011900001494FEA11404FEA144621EA004800FB9A
:1011A00006FC24EA064708FB06F607FB08F800FBE6
:1011B00007F718EB06484CEB164C4FEA124B18EBAE
:1011C00007484FEA15464CEB174022EA0B4E0BFB43
:1011D00006FC25EA06470EFB06F607FB0EFE0BFB98
:1011E00007F71EEB064E4CEB164C4FF000061EEBBD
:1011F000074E4CEB174B18EB0B0840F1000018EBB7
:101200000E0B58EB000840F100008F1A4FF0000160
:101210003CBFC943661B14BFB5EB040C00213CBFA7
:10122000C943F61B4FEA17444EEA8E0E27EA0445DF
:101230004FEA1C4704FB07622CEA074C05FB07F743
:101240000CFB05F604FB0CFC16EB074642EB1742C1
:1012500016EB0C4642EB1C421BEB060658EB020257
:10126000414146EA9E0601D5BDE80189B6195241C1
:1012700041EB0101A3F10103BDE801894FEA1445E7
:101280004FEA114724EA054621EA074C05FB07F41B
:1012900006FB07F70CFB06F105FB0CFC11EB074105
:1012A00044EB17444FEA124711EB0C4144EB1C444A
:1012B00022EA074C05FB07F206FB07F70CFB06F6D4
:1012C00005FB0CFC16EB074642EB174216EB0C46EF
:1012D00042EB1C456A1854F1000148BF7047B6192B
:1012E000524141EB0101A3F10103704795F0000F5A
:1012F00037D04FEA11424FEA144721EA024624EA66
:10130000074C02FB07F106FB07F70CFB06F402FB98
:101310000CFC14EB074441EB17414FEA154714EB63
:101320000C4441EB1C4125EA074C02FB07F506FB88
:1013300007F70CFB06F602FB0CFC16EB074645EB29
:10134000174516EB0C4645EB1C42121951F10001F2
:1013500048BF7047B619524141EB0101A3F10103A7
:1013600070474FEA14454FEA114724EA054621EA3F
:10137000074C05FB07F106FB07F70CFB06F24FF0E5
:10138000000605FB0CFC12EB074241EB174112EB88
:101390000C4251EB1C4148BF7047921841EB0101D0
:1013A000A3F101037047000010B5002807DA0A070F
:1013B000140E054A00F00F031B1FD45403E00A0764
:1013C000130E024A135410BD18ED00E000E400E0D3
:1013D00002480068401C0149086070471400002062
:1013E0007047490050EAC12018BF04204A0D18BFB9
:1013F00040F0010040F2FF72B2EB515F08BF40F0D5
:101400000200012808BF0520704730380A2801D2A1
:1014100001207047002070472DE9F04131480068F5
:101420004FF47A71B0FBF1F4601EB0F1807F00D30D
:101430000FE0601E4FF0E02148610F214FF0FF30B8
:10144000FFF7B2FF00204FF0E0218861072008611C
:1014500000BF00BF24490968C1F3022000221346DF
:101460000146C1F10707042F01D9042701E0C1F1AA
:1014700007073E460F1D072F01D2002700E0CF1EB1
:101480003D460127B7407F1E1740AF404FF0010C8B
:101490000CFA05FCACF1010C0CEA030C47EA0C0455
:1014A00021464FF0FF30FFF77FFF0F48F030006814
:1014B00020F080700C49F03108600846006840F068
:1014C000807008600020094948600846006820F0E4
:1014D000010008600846006840F001000860BDE8AF
:1014E000F0810000000000200CED00E0001000E0A2
:1014F000044A116800BF034A1268521A8242FAD3A2
:10150000704700001400002030B505460C4614B9A1
:1015100025F0010503E0012C01D145F00105094842
:10152000056034B900BF084800F012F80028FAD06E
:1015300007E0012C05D100BF044800F009F800289D
:10154000FAD030BD105400408200070002000300B2
:1015500010B5014606480268001D036842EA0344CC
:1015600004EA0100884201D1012010BD0020FCE7FF
:101570001454004070B55B4DED6945F40015594EAB
:10158000F56104205849594DB1FBF5F5ABB2002483
:10159000574A584D2D6805F00105564E35603546C1
:1015A0002D6825F00805356035462D6825F00205C3
:1015B0003560351D2D6825F03F05361D35603546F3
:1015C0002D681D433560351F2D6825F48065361F55
:1015D0003560484D1C352D6825F48045454E1C3638
:1015E0003560444D08352D6825F40045414E0836D8
:1015F000356035462D6835601546AA4218D8550025
:10160000B1FBF5F5A8B2C0F30B05042D00DA0420F8
:10161000384D1C352D6825F40045364E1C36356096
:1016200035462D68054335605D1C361D35603CE050
:101630006CB902EB4205B1FBF5F5A8B22D4D1C3596
:101640002D6825F480452B4E1C36356010E0012CAA
:101650000ED102EBC20505EB0215B1FBF5F5A8B200
:10166000244D1C352D6845F48045224E1C363560CE
:10167000C0F30B05012D01DA40F001001D4D1C35B2
:101680002D6845F400451B4E1C36356035462D68E7
:10169000054335604FF496755D434FF47A7695FBBC
:1016A000F6F56D1C134E20363560124D2D6845F051
:1016B0000105104E35600B4DAD6945F00805094E2A
:1016C000B5610D4D2D6825F04C550B4E35603546F6
:1016D0002D6845F00855356035462D6845F04C4578
:1016E000356070BD001002400051250240420F00DD
:1016F000A086010000540040000C014000B50848DD
:10170000006840F480600649086000BF0548FFF7A4
:101710001FFF0028FAD0024810300068C0B200BD98
:10172000005400404000030000B50848006820F461
:1017300080600649086000BF0548FFF709FF0028E0
:10174000FAD0024810300068C0B200BD005400401A
:101750004000030000B50648006840F4807004496A
:10176000086000BF0348FFF7F3FE0028FAD000BD71
:1017700000540040010003000748006840F4007076
:101780000549086000BF04481430006800F01000EC
:101790001028F8D0704700000054004010B50446EF
:1017A0000448046000BF0448FFF7D2FE0028FAD0C6
:1017B00010BD0000105400408400070090B000F0FD
:1017C0000BFDFFF729FE00F09BFD0021032000F038
:1017D0006BFA00F062FA08B17FA000E080A0044636
:1017E000224682A18648FEF701FD854800F0FCFDF7
:1017F00084A000F0F9FD00F02CFA082821D2DFE8DF
:1018000000F01C1814100C08200482A000F0ECFD5D
:1018100017E08FA000F0E8FD13E097A000F0E4FDD2
:101820000FE09FA000F0E0FD0BE0A7A000F0DCFDC2
:1018300007E0AFA000F0D8FD03E0B7A000F0D4FDB2
:1018400000BF00BFBBA000F0CFFD00F01BFA88B1C5
:1018500001280BD0022805D003280FD1B9A000F031
:10186000C3FD0BE0BAA000F0BFFD07E0BBA000F095
:10187000BBFD03E0BCA000F0B7FD00BF00BFBDA0F2
:1018800000F0B2FD00F0E0F9044600F0D8F905469A
:1018900000F0D0F906462B463246BCA158480094C9
:1018A000FEF7A4FC564800F09FFDBCA000F09CFD94
:1018B00000F0E3F9044600F0DBF9054600F0D3F947
:1018C00006462B463246B1A14D480094FEF78EFCE9
:1018D0004B4800F089FD7EE00DA800F0F3FA0AA85D
:1018E00000F014FA07A800F035FB04A800F044FA51
:1018F0008FA000F079FD0F9800F036FE04460D46EB
:101900000E9800F031FE06460F460D9800F02CFEB2
:10191000804642460B46A6A13948CDE90067CDE98D
:101920000245FEF763FC364800F05EFD0C9800F0BF
:101930001BFE04460D460B9800F016FE06460F46A9
:101940000A9800F011FE804642460B46A8492C48F2
:10195000CDE90067CDE90245FEF748FC284800F0D4
:1019600043FD099800F000FE04460D46089800F07B
:10197000FBFD80468946079800F0F6FD0646324694
:101980000B469CA11E48CDE90089CDE90245FEF732
:101990002DFC1B4800F028FD069800F0E5FD0446EC
:1019A0000D46059800F0E0FD06460F46049800F04D
:1019B000DBFD804642460B469D491148CDE9006754
:1019C000CDE90245FEF712FC0D4800F00DFD0A209E
:1019D000FFF78EFD00BF7FE7456E61626C656400B6
:1019E00044697361626C656400000000536C656556
:1019F00070204D6F64653A2025730D0A00000000C9
:101A000018000020436C6F636B20536F7572636521
:101A10003A20000053746F70732074686520636C03
:101A20006F636B20616E64206B65657073207468F2
:101A3000652074696D696E672067656E6572617493
:101A40006F7220696E2072657365740D0A00000064
:101A5000504C4C20776974682065787465726E61AB
:101A60006C2031392E324D487A2072656665726578
:101A70006E63650D0A000000504C4C207769746855
:101A80002065787465726E616C2033322E3736387B
:101A90006B487A207265666572656E63650D0A0033
:101AA000504C4C2077697468205A20617869732003
:101AB0006779726F73636F706520726566657265B2
:101AC0006E63650D0A000000504C4C207769746805
:101AD00020592061786973206779726F73636F7022
:101AE00065207265666572656E63650D0A000000AB
:101AF000504C4C20776974682058206178697320B5
:101B00006779726F73636F70652072656665726561
:101B10006E63650D0A000000496E7465726E616C3B
:101B200020384D487A206F7363696C6C61746F72F2
:101B30000D0A0000416363656C65726F6D657465C5
:101B4000723A20002B2F2D20313620670D0A00001D
:101B50002B2F2D203820670D0A0000002B2F2D2061
:101B60003420670D0A0000002B2F2D203220670D36
:101B70000A000000416363656C65726F6D65746592
:101B800072206F6666736574733A20002564202F97
:101B9000202564202F2025640D0A00004779726FEC
:101BA00073636F7065206F6666736574733A2000A7
:101BB000416363656C65726F6D65746572207261F7
:101BC000773A2058726177203D20252E3466202FE9
:101BD0002059726177203D20252E3466202F205A0F
:101BE000726177203D20252E34660D0A000000002A
:101BF000942A00084779726F73636F706520726171
:101C0000773A2058726177203D20252E3466202FA8
:101C10002059726177203D20252E3466202F205ACE
:101C2000726177203D20252E34660D0A00000000E9
:101C3000502A000810B5062000F0D4F910BD10B5E8
:101C4000082000F0CFF910BD10B50A2000F0CAF945
:101C500010BD10B500246B2000F0E8F9044604F034
:101C60000704204610BD10B5132000F0BBF910BDCD
:101C700010B5152000F0B6F910BD10B5172000F012
:101C8000B1F910BD10B500241C2000F0CFF90446B6
:101C900004F01804E410204610BD10B506216B2096
:101CA00000F0DDF910BD000070B505460C46FFF7E9
:101CB000B3FBFFF75FFC00201049086048608860B4
:101CC0000F4908700F490860486088600E49086035
:101CD000752000F0ABF9682801D0002070BD01200C
:101CE00000F0CAF9284600F00DFA204600F0D4F9B9
:101CF000002000F03DFA0120F0E70000D4000020B1
:101D000010000020C80000200C0000203EB5044652
:101D1000684600F0D7F8144908681449096800F0CB
:101D200009FD0546124900F005FD124908600E49FB
:101D300048680E49096800F0FDFC05460C4900F0B2
:101D4000F9FC0C494860084988680849096800F0AE
:101D5000F1FC0546064900F0EDFC064988600A469C
:101D600007CA84E807003EBD980000200800002054
:101D70000AE81C41B00000202DE9FE4304466846F5
:101D800000F0E8F84848007850B3484A1168484ADB
:101D9000106800F09BFD054646480168284600F0A3
:101DA000C9FC45490860414A5168414A506800F001
:101DB0008DFD05463F480168284600F0BBFC3E49C2
:101DC00048603A4A91683A4A906800F07FFD0546BB
:101DD00038480168284600F0ADFC3749886017E0B4
:101DE000334908683349096800F0A4FC32490860A7
:101DF0002F4948682F49096800F09CFC2E4948602B
:101E00002B4988682B49096800F094FC2A498860AE
:101E100000212A48006800F041FC3ED028490868AB
:101E200000F0A2FB05460E462349086800F09CFB23
:101E300021F0004107462A46334600F005FB02D256
:101E400000201D4908601E49486800F08DFB0546CA
:101E50000E461949486800F087FB21F0004107460B
:101E60002A46334600F0F0FA02D2002012494860B8
:101E70001349886800F078FB05460E460E498868CD
:101E800000F072FB21F0004107462A46334600F07D
:101E9000DBFA02D2002008498860074A07CA84E8B2
:101EA0000700BDE8FE83000010000020D4000020E1
:101EB000A400002004000020BC0000200C00002032
:101EC000C80000202DE9F0470446FFF743FC00213D
:101ED000D020FFF719FB3B20FFF760FCFFF73AFC2F
:101EE0000121D020FFF710FBFFF708FC0546FFF7A4
:101EF00005FC0646FFF702FC0746FFF7FFFB80469E
:101F0000FFF7FCFB8146FFF70FFC8246FFF734FC2E
:101F1000290209B241EA060000F0F4FB0C4908600E
:101F2000390209B241EA080000F0ECFB08494860B8
:101F30004FEA092109B241EA0A0000F0E3FB044933
:101F400088600A4607CA84E80700BDE8F0870000F9
:101F5000980000202DE9F0470446FFF7FBFB002125
:101F6000D020FFF7D1FA4320FFF718FCFFF7F2FB70
:101F70000121D020FFF7C8FAFFF7C0FB0546FFF7A5
:101F8000BDFB0646FFF7BAFB0746FFF7B7FB8046E7
:101F9000FFF7B4FB8146FFF7C7FB8246FFF7ECFB78
:101FA000290209B241EA060000F0ACFB0C490860C6
:101FB000390209B241EA080000F0A4FB0849486070
:101FC0004FEA092109B241EA0A0000F09BFB0449EB
:101FD00088600A4607CA84E80700BDE8F087000069
:101FE000A40000202DE9F04104460025002600272A
:101FF000FFF7B0FB0021D020FFF786FA2046FFF75D
:10200000CDFBFFF7A7FB0121D020FFF77DFAFFF7FB
:1020100075FB0646FFF788FB0746FFF7ADFB30026E
:1020200000B240EA07052846BDE8F08170B50446D5
:102030000025FFF78FFB0021D020FFF765FA20462F
:10204000FFF7ACFBFFF786FB0121D020FFF75CFA1E
:10205000FFF76AFB0546FFF78FFB284670BD70B59A
:1020600005460C4600262846FFF7E0FF064646FADE
:1020700004F000F0010070BD70B5054600246B202F
:10208000FFF7D4FF044604F0F8042C4321466B20EC
:1020900000F076F870BD000070B50446002534B13C
:1020A000012C08D0022C0AD0032C10D10BE01048D0
:1020B000104908600CE010480E49086008E00F481D
:1020C0000C49086004E00E480A49086000E000BFBF
:1020D00000BF1C20FFF7AAFF054605F0E70545EA0B
:1020E000C400C5B229461C2000F04AF870BD0000AB
:1020F00040DA7F380800002040DAFF3840DA7F39C4
:1021000018F5FF3970B50446002534B1012C08D00C
:10211000022C0AD0032C10D10BE0104810490860A3
:102120000CE010480E49086008E00F480C490860B0
:1021300004E00E480A49086000E000BF00BF1B2011
:10214000FFF774FF054605F0E70545EAC400C5B290
:1021500029461B2000F014F870BD00003F1EFA3B1A
:102160000400002070227A3CDFBFF93CECC0793DCE
:1021700010B50446224606216B2000F013F810BD6E
:1021800070B505460C46FFF7E5FA0021D020FFF7B1
:10219000BBF92846FFF702FB2046FFF7FFFAFFF7DF
:1021A000EBFA70BD2DE9F04107460C4616460025B6
:1021B0003846FFF73BFF054626B10120A0402843E3
:1021C000C5B202E00120A040854329463846FFF70A
:1021D000D7FFBDE8F08100004248C06940F0805060
:1021E0004049C861042002463F4B19684FF6FF037F
:1021F00019403E4B0B4343EA02213B4B196000BFA1
:102200003848806940F001003649886138484068A4
:1022100020F0E060364948600846406840F00070B1
:1022200048603048806940F004002E498861314898
:10223000006840F010002F4908600846006820F050
:10224000070008600846006840F002000860254862
:10225000006840F480302349086000BF21480068CE
:1022600000F40030B0F5003FF8D11E48406840F45B
:1022700080301C494860084640684860084640680D
:1022800040F4E01048600846006840F08070086044
:1022900000BF1448006800F00070B0F1007FF8D172
:1022A000104840680F4948600846406840F4806024
:1022B00048600846406848600846406840F00200B0
:1022C000486000BF0748406800F00C000828F9D1BA
:1022D00009480A4908600348806940F02000014924
:1022E00088617047001002400CED00E00000FA0524
:1022F000000001400020024000A24A04000000202B
:102300002E48806940F004002C4988612C48006800
:1023100020F440702A4908600846006820F44060B4
:1023200008600846006840F480600860084600685D
:1023300020F0300008600846006840F02000086087
:102340000846006820F0C00008600846006840F0B9
:10235000800008601948806940F48040174988610E
:102360001848006820F48050164908600846006844
:1023700020F4806008600846006840F008000860AB
:102380000846006840F004000860081D006820F45A
:102390004050091D0860081D006820F40070091DE8
:1023A000086041F64C500749091F0860081D006885
:1023B00040F40050091D0860704700000010024002
:1023C000040801400C380140C0F30801054A1160BF
:1023D00000BF0449091F096801F080018029F8D174
:1023E000704700000438014010B50346002405E0A2
:1023F0002146621CD4B2585CFFF7E6FF185D002846
:10240000F6D110BD10B500290AD00878002807D0F1
:1024100005487844FEF7B8FB002801D0002010BD25
:102420000248784410BD0000EA060000E206000001
:10243000491058BFC1F140415B1058BFC3F1404340
:102440008B42EFF30080704751EA030C17D41CF560
:10245000801F58BFBCF5801F00F10680994218BF4D
:10246000704708BF9042704707D711F5801F58BFCB
:1024700013F5801F19D499427047894270471CF5A3
:10248000801F08D5BCF5801FF7D58B4218BF704759
:1024900008BF824270474FF4001C1CEB410F38BF4D
:1024A0001CEB430F01D28B42704770B500F008F867
:1024B000922449004FF000514FF08053FFF7B8BF0E
:1024C0000EF1020E2EF0030E5EF8046B364205D4B8
:1024D000012A43EB030515F5001F12D8012841EB33
:1024E000010C1CF5001F0CD80ED14FEAD17C15F55C
:1024F000001F0CEB4C0C0CF1020C08BF4CEBD37C16
:1025000004E04FF0080C01E04FEAD37C0CEB4C05E3
:1025100026FA05F606F00706B6F1040C06D20EEB15
:10252000860CBDE870404CF0010C6047DFE80CF011
:10253000090B02024FF000414FF00000A1F500210D
:1025400070BD19461046012851EB010418BFD4F59F
:10255000001484BF002001F0004170BD0808A0F500
:1025600000114FEA3101704743004FEAD30C4FEAA4
:102570003C0C43401FBF40070CF1605113F0FE4F6D
:1025800070471CF0006F03D100200CF00041704731
:102590000CF0004343EA507010B540EACC0000F064
:1025A0004AF900BF000000924FEA0001FFF7D6BFD2
:1025B0004FF000414FF00000A1F5002170470000EE
:1025C00090EA010F48BF81F0004100F18681421A74
:1025D0003CBF801A89184FEAD0524FF07F4C1CEA5A
:1025E000410FA2EBD15318BF9CEA026F00F03B8071
:1025F0004FF0004C4CEA00204CEA012121FA03FC88
:1026000010EB0C0C1ED202F1FF325FEA1C2040EBF3
:10261000C25038BF70471CF07F0F4FEA400C18BF04
:10262000BCF17F4F38BF7047C3F12003994008BF0A
:1026300020F00100BCF17F4F38BF7047A0F1C040CF
:1026400000F03FB94FEA3C00000A40EBC25028BFFF
:102650001CF0FF0F4FEA400CE6D018BFBCF17F4FD3
:1026600038BF7047EAE79CEA026F05D010EA5C0FBA
:1026700008BF00F00040704710B500F0DCF800BF64
:1026800064FBBE3E401058BFC0F14040491058BFE7
:10269000C1F140418142EFF30080704750EA010CE4
:1026A00000F113801CF5000F58BFBCF5000F01D4DA
:1026B0008842704707D710F5000F58BF11F5000F7B
:1026C00015D488427047894270471CF5000F04D525
:1026D000BCF5000FF7D5814270474FF0807C1CEBB2
:1026E000400F38BF1CEB410F01D28142704710B53B
:1026F00000F0A1F8922449004FF000504FF08051B3
:10270000FFF7C0BF10F0004148BF4042B0FA80F36D
:1027100010FA03F2C3F19D030BD051EAC35101EB50
:102720001220530638BF704700F1010008BF20F0A7
:10273000010070474FF47F0C1CEAD0121EBF1CEA48
:10274000D11392EA0C0F93EA0C0F00F0478090EA45
:10275000010F48BF42F480724FF0004C4CEA002059
:102760004CEA012102EB0302A0FB0113A2F50002D7
:10277000002918BF43F001035B0028BF4FEA330371
:1027800042EB22425FEA132C4CEBC2502EBFBCEB53
:10279000436FB2F57C0F70474FEA036CBCF1004FFA
:1027A00008BF20F00100B2F57C0F38BF70470BD591
:1027B00082F0FF0212F5803FC8BF704700F1C040B1
:1027C000D8BF00F00040704700F5000C5FEA4C0CE9
:1027D00048BF7047B0F1C04000F073B890EA010FF5
:1027E0000CEAD11348BF42F48072624538BF63459A
:1027F00004D280EA010000F00040704710B500F0FC
:102800001AF800BF8900013E00F007B800F009B8CF
:102810005FEA410C5FEA1C6C08D080EA010000F01E
:1028200050B85FEA400C5FEA1C6CF6D14FF00040F4
:10283000A0F5800070470EF1020E2EF0030E5EF838
:10284000044B244204D44FEA4102B2F17F4F11D825
:102850004FEA4003B3F17F4F0CD80ED14FEAD07C42
:10286000B2F17F4F0CEB4C0C0CF1020C08BF4CEB9F
:10287000D17C04E04FF0080C01E04FEAD17C0CEB76
:102880004C0324FA03F404F00704B4F1040C06D258
:102890000EEB840CBDE810404CF0010C6047DFE803
:1028A0000CF0070802024FF00040A0F5800010BDB8
:1028B0000846420018BFD2F1807288BF00F0004085
:1028C00010BDFF2141EAD050C005704790EA010FCA
:1028D00048BF81F000413FF57AAE421A04D882F039
:1028E0000042A0EB020011444FEAD0524FF07F4C5F
:1028F0001CEA410FA2EBD15318BF9CEA026F4AD0E9
:102900004FF0004C4CEA00204CEA012121FA03FC74
:10291000B0EB0C0C0FD412F0FE0F36D05FEA4C0077
:102920001DD5001240EBC25038BF70471CF03F0F5E
:1029300018BF70470BE0A2F101025FEA1C2040EBD8
:10294000C25038BF70471CF07F0F18BF7047C3F1EB
:102950002003994014BF401E20F0010070478008FA
:102960004FEA122308BF7047B0FA80FCA2EB0C02BA
:10297000CCF1280C60FA0CF093EA122F04BF00EBA4
:10298000C25070474FEAC3707047130A5FEADC1009
:1029900008BF7047F6E79CEA026F04D010EA5C0FAC
:1029A00008BF0020704710B5FFF745FF40DFF63E37
:1029B00081F000407047FDF74FBE0000024000006C
:1029C000000000A00000000005400000000000C85A
:1029D000000000000C4000000000409C00000000CF
:1029E000194000000020BCBE000000003440000080
:1029F000BFC91B8E00000004B5400000504BCFD073
:102A00006607E2CF010000006C4100003E8251AA3F
:102A1000DFEEA73401000000D9420000DCB5A0E2DF
:102A20003A301F97FFFFFFFFB4450000FD25A0C807
:102A3000E9A3C14FFFFFFFFFFF3F00000000008040
:102A400000000000FF3F00000000008000000000C8
:102A50004779726F73636F7065206E6F6D616C691B
:102A60007A653A20586E6F726D203D20252E3466AF
:102A7000202F20596E6F726D203D20252E34662048
:102A80002F205A6E6F726D203D20252E34660D0A60
:102A900000000000416363656C65726F6D6574656D
:102AA00072206E6F6D616C697A653A20586E6F7234
:102AB0006D203D20252E3466202F20596E6F726DBB
:102AC000203D20252E3466202F205A6E6F726D20F7
:102AD0003D20252E34660D0A00000000182B00084A
:102AE000000000201800000028010008302B00081A
:102AF0001800002040070000440100081C000000EE
:102B000043000000F8FFFFFF0C0000000E00000073
:102B10000F0000002E0000000024F4000000000060
:102B200000000000000000000000000000000000A5
:04000005080000ED02
:00000001FF
