:020000040800F2
:10000000E80600208901000891010008930100081A
:100010009501000897010008990100080000000000
:100020000000000000000000000000009B0100082C
:100030009D010008000000009F010008A1010008C8
:10004000A3010008A3010008A3010008A301000800
:10005000A3010008A3010008A3010008A3010008F0
:10006000A3010008A3010008A3010008A3010008E0
:10007000A3010008A3010008A3010008A3010008D0
:10008000A3010008A3010008A3010008A3010008C0
:10009000A3010008A3010008A3010008A3010008B0
:1000A000A3010008A3010008A3010008A3010008A0
:1000B000A3010008A3010008A3010008A301000890
:1000C000A3010008A3010008A3010008A301000880
:1000D000A3010008D5020008A3010008A30100083D
:1000E000A3010008A3010008A301000800F002F822
:1000F00000F03AF80AA090E8000C82448344AAF188
:100100000107DA4501D100F02FF8AFF2090EBAE885
:100110000F0013F0010F18BFFB1A43F0010318473B
:100120003805000058050000103A24BF78C878C18F
:10013000FAD8520724BF30C830C144BF04680C60ED
:10014000704700000023002400250026103A28BF35
:1001500078C1FBD8520728BF30C148BF0B60704739
:100160001FB51FBD10B510BD00F07AF81146FFF79E
:10017000F7FF00F0E5F800F098F803B4FFF7F2FF9E
:1001800003BC00F09FF80000094880470948004779
:10019000FEE7FEE7FEE7FEE7FEE7FEE7FEE7FEE737
:1001A000FEE7FEE704480549054A064B7047000094
:1001B000D3020008ED000008E8000020E806002057
:1001C000E8020020E80200204FF000020429C0F0FD
:1001D000128010F0030C00F01E80CCF1040CBCF176
:1001E000020F18BF00F8012BA8BF20F8022BA1EBCB
:1001F0000C0100F010B85FEAC17C24BF00F8012BAD
:1002000000F8012B48BF00F8012B7047704770477A
:1002100070474FF0000200B51346944696462039C9
:1002200022BFA0E80C50A0E80C50B1F12001BFF4AF
:10023000F7AF090728BFA0E80C5048BF0CC05DF815
:1002400004EB890028BF40F8042B08BF704748BF63
:1002500020F8022B11F0804F18BF00F8012B7047D7
:10026000754600F02BF8AE4605006946534620F06F
:100270000700854618B020B5FFF794FFBDE8204081
:100280004FF000064FF000074FF000084FF0000B52
:1002900021F00701AC46ACE8C009ACE8C009ACE805
:1002A000C009ACE8C0098D46704710B50446AFF3ED
:1002B00000802046BDE81040FFF75FBF0048704750
:1002C0008800002001491820ABBEFEE7260002008E
:1002D000704770471648006800F02000202826D19B
:1002E00013480C30006800F0200020281FD110496E
:1002F000091D0968C8B20F490A780978491C0D4BD5
:1003000019700D4988540A280AD101210B4A11702D
:1003100007490C31096821F02001054A0C321160AF
:100320000349096821F02001014A116000BF7047AC
:1003300000380140040000200800002005000020D3
:1003400000F0D8F86348806940F004006149886192
:100350006148006820F440705F4908600846006802
:1003600020F4406008600846006840F4806008603F
:100370000846006820F0300008600846006840F039
:10038000200008600846006820F0C00008600846A9
:10039000006840F0800008604E48806940F480406A
:1003A0004C4988614D48006820F480504B490860F2
:1003B0000846006820F4806008600846006840F045
:1003C000080008600846006840F004000860081D46
:1003D000006820F44050091D0860081D006820F4E2
:1003E0000070091D086041F64C503C49091F086027
:1003F000081D006840F02000091D086008460068DC
:1004000040F4005008602521354B1B68C3F30220DF
:10041000002425460346C3F1070CBCF1040F02D9A2
:100420004FF0040C01E0C3F1070C674603F1040C24
:10043000BCF1070F02D24FF0000C01E0A3F1030C56
:1004400066464FF0010C0CFA07FCACF1010C0CEA0B
:10045000040C0CFA06FC4FF0010808FA06F8A8F1A3
:10046000010808EA05084CEA080200BF002908DA7A
:100470001007040E1A480C3001F00F031B1FC45460
:1004800003E01007030E1748435400BF252000F077
:100490001F02012191404209920002F1E022C2F8BC
:1004A000001100BF15E010480078012811D10F4855
:1004B00000F0C4F880210D48FFF786FE00200A49AD
:1004C00008700B4908700548006840F02000034997
:1004D0000860E8E700100240040801400C380140C1
:1004E0000CED00E000E400E0050000200800002022
:1004F000040000204248C06940F080504049C86173
:10050000042002463F4B19684FF6FF0319403E4B4B
:100510000B4343EA02213B4B196000BF3848806916
:1005200040F00100364988613848406820F0E060BA
:10053000364948600846406840F0007048603048DE
:10054000806940F004002E4988613148006840F01D
:1005500010002F4908600846006820F00700086076
:100560000846006840F0020008602548006840F432
:1005700080302349086000BF2148006800F4003043
:10058000B0F5003FF8D11E48406840F480301C4967
:1005900048600846406848600846406840F4E010FB
:1005A00048600846006840F08070086000BF14484A
:1005B000006800F00070B0F1007FF8D1104840688A
:1005C0000F4948600846406840F48060486008462B
:1005D000406848600846406840F00200486000BF3C
:1005E0000748406800F00C000828F9D109480A497A
:1005F00008600348806940F0200001498861704725
:10060000001002400CED00E00000FA05000001407F
:100610000020024000A24A0400000020C0F30801AC
:10062000054A116000BF0449091F096801F08001F3
:100630008029F8D1704700000438014010B5034606
:10064000002405E02146621CD4B2585CFFF7E6FFA7
:10065000185D0028F6D110BD7806000800000020C3
:10066000080000002801000880060008080000209B
:10067000E0060000440100080024F400000000002F
:04000005080000ED02
:00000001FF
