:020000040800F2
:10000000680600208901000891010008930100089A
:100010009501000897010008990100080000000000
:100020000000000000000000000000009B0100082C
:100030009D010008000000009F0100082504000841
:10004000A3010008A3010008A3010008A301000800
:10005000A3010008A301000845020008A50200084A
:1000600009030008A3010008A3010008A301000878
:10007000A3010008A3010008A3010008A3010008D0
:10008000A3010008A3010008A3010008A3010008C0
:10009000A3010008A3010008A3010008A3010008B0
:1000A000A3010008A3010008A3010008A3010008A0
:1000B000A3010008A3010008A3010008A301000890
:1000C000A3010008A3010008A3010008A301000880
:1000D000A3010008A3010008A3010008A301000870
:1000E000A3010008A3010008A301000800F002F822
:1000F00000F03AF80AA090E8000C82448344AAF188
:100100000107DA4501D100F02FF8AFF2090EBAE885
:100110000F0013F0010F18BFFB1A43F0010318473B
:1001200080060000A0060000103A24BF78C878C1FD
:10013000FAD8520724BF30C830C144BF04680C60ED
:10014000704700000023002400250026103A28BF35
:1001500078C1FBD8520728BF30C148BF0B60704739
:100160001FB51FBD10B510BD00F031F81146FFF7E7
:10017000F7FF00F0D9F900F04FF803B4FFF7F2FFF2
:1001800003BC00F057F800000948804709480047C1
:10019000FEE7FEE7FEE7FEE7FEE7FEE7FEE7FEE737
:1001A000FEE7FEE704480549054A064B7047000094
:1001B00035040008ED0000086800002068060020F3
:1001C000680200206802002070477047704775463B
:1001D00000F02CF8AE4605006946534620F00700B3
:1001E000854618B020B5FFF7DDFFBDE820404FF091
:1001F00000064FF000074FF000084FF0000B21F011
:100200000701AC46ACE8C009ACE8C009ACE8C009DD
:10021000ACE8C0098D46704710B50446AFF30080C6
:100220002046BDE81040FFF7A8BF00000048704717
:100230000800002001491820ABBEFEE7260002009E
:100240007047000010B5002413E01448006840F027
:10025000200012490860FA2000F05AF90F4800689F
:1002600040F400100D490860FA2000F051F9601CBC
:10027000C4B2062CE9DB0A48006800F0010058B15E
:1002800007481438006800F0010028B104480068ED
:1002900040F001000249086010BD0000100C014050
:1002A0001404014010B5002413E01548006840F024
:1002B000400013490860FA2000F02AF9104800684D
:1002C00040F480000E490860FA2000F021F9601C1B
:1002D000C4B2062CE9DB0B48006800F002000228DB
:1002E0000CD108481438006800F00200022805D13B
:1002F0000448006840F002000249086010BD000098
:10030000100C01401404014010B5002413E01548FE
:10031000006840F0800013490860FA2000F0F8F807
:100320001048006840F400000E490860FA2000F010
:10033000EFF8601CC4B2062CE9DB0B48006800F043
:10034000040004280CD108481438006800F00400A8
:10035000042805D10448006840F004000249086000
:1003600010BD0000100C01401404014000F01F02F9
:10037000012191404209920002F1E022C2F80011ED
:100380007047F0B503460C4603F00701C1F10700C2
:10039000042801D9042001E0C1F107000646081D28
:1003A000072801D2002000E0C81E05460120B04009
:1003B000401E2040A8400127AF407F1E1740384311
:1003C000F0BD000002480068C0F302207047000042
:1003D0000CED00E010B5002807DA0A07140E054AF4
:1003E00000F00F031B1FD45403E00A07130E024A48
:1003F000135410BD18ED00E000E400E010B5002833
:1004000007DA0A07140E054A00F00F031B1FD45425
:1004100003E00A07130E024A135410BD18ED00E062
:1004200000E400E002480068401C01490860704791
:1004300004000020704700002DE9F04131480068B9
:100440004FF47A71B0FBF1F4601EB0F1807F00D3FD
:100450000FE0601E4FF0E02148610F214FF0FF30A8
:10046000FFF7CCFF00204FF0E021886107200861F2
:1004700000BF00BF24490968C1F3022000221346CF
:100480000146C1F10707042F01D9042701E0C1F19A
:1004900007073E460F1D072F01D2002700E0CF1EA1
:1004A0003D460127B7407F1E1740AF404FF0010C7B
:1004B0000CFA05FCACF1010C0CEA030C47EA0C0445
:1004C00021464FF0FF30FFF799FF0F48F0300068EA
:1004D00020F080700C49F03108600846006840F058
:1004E000807008600020094948600846006820F0D4
:1004F000010008600846006840F001000860BDE89F
:10050000F0810000000000200CED00E0001000E091
:10051000044A116800BF034A1268521A8242FAD391
:10052000704700000400002000F0A6F8FFF784FFE9
:100530004948806940F00800474988614748006899
:1005400040F4600045490860444810380068444958
:10055000084042491039086008460068414908438C
:100560003E4910390860084600683F4908403B4949
:10057000103908603848806940F0040036498861C5
:100580003A48006840F233318843384908600846E9
:10059000006840F6CC41884334490860084600684A
:1005A00040F244410843314908602B48806940F0DB
:1005B0000100294988612E4880682D4988600846D5
:1005C000806888600846806888602A48006840F033
:1005D000070028490860081D006820F00700091D71
:1005E0000860081D006820F00700091D0860081D4C
:1005F000006840F00700091D0860FFF7E3FE0546AC
:1006000000220121FFF7BDFE044621460620FFF728
:10061000E1FEFFF7D7FE054601220221FFF7B1FEFA
:10062000044621460720FFF7D5FEFFF7CBFE05461F
:1006300000220221FFF7A5FE044621460820FFF70D
:10064000C9FE0620FFF792FE0720FFF78FFE082065
:10065000FFF78CFE00BFFEE700100240100C0140C7
:10066000FFFFCFCC00002022FFFF3F3300080140F6
:1006700000000140000401404248C06940F0805041
:100680004049C861042002463F4B19684FF6FF03FA
:1006900019403E4B0B4343EA02213B4B196000BF1C
:1006A0003848806940F00100364988613848406820
:1006B00020F0E060364948600846406840F000702D
:1006C00048603048806940F004002E498861314814
:1006D000006840F010002F4908600846006820F0CC
:1006E000070008600846006840F0020008602548DE
:1006F000006840F480302349086000BF214800684A
:1007000000F40030B0F5003FF8D11E48406840F4D6
:1007100080301C4948600846406848600846406888
:1007200040F4E01048600846006840F080700860BF
:1007300000BF1448006800F00070B0F1007FF8D1ED
:10074000104840680F4948600846406840F480609F
:1007500048600846406848600846406840F002002B
:10076000486000BF0748406800F00C000828F9D135
:1007700009480A4908600348806940F0200001499F
:1007800088617047001002400CED00E00000FA059F
:10079000000001400020024000A24A0400000020A6
:1007A000C007000800000020080000002801000821
:1007B000C807000808000020600600004401000887
:0807C0000024F4000000000019
:04000005080000ED02
:00000001FF
