:020000040800F2
:100000009006002091010008990100089B0100085A
:100010009D0100089F010008A101000800000000E8
:10002000000000000000000000000000A301000824
:10003000A501000800000000A7010008A5040008B1
:10004000AB010008AB010008AB010008AB010008E0
:10005000AB010008AB010008AB010008AB010008D0
:10006000AB010008AB010008AB010008AB010008C0
:10007000AB010008AB010008AB010008AB010008B0
:10008000AB010008AB01000841040008AB01000807
:10009000AB010008AB010008AB010008AB01000890
:1000A000AB010008AB010008AB010008AB01000880
:1000B000AB010008AB010008AB010008AB01000870
:1000C000AB010008AB010008AB010008AB01000860
:1000D000AB010008AB010008AB010008AB01000850
:1000E000AB010008AB010008AB01000800F002F80A
:1000F00000F03FF80AA090E8000C82448344AAF183
:100100000107DA4501D100F034F8AFF2090EBAE880
:100110000F0013F0010F18BFFB1A43F0010318473B
:10012000D4080000F4080000103A24BF78C878C151
:10013000FAD8520724BF30C830C144BF04680C60ED
:10014000704700000023002400250026103A28BF35
:1001500078C1FBD8520728BF30C148BF0B60704739
:10016000642900F07D80002070471FB51FBD10B5C9
:1001700010BD00F02AF91146FFF7F7FF00F014FA5E
:1001800000F048F903B4FFF7F2FF03BC00F050F9A8
:100190000948804709480047FEE7FEE7FEE7FEE71B
:1001A000FEE7FEE7FEE7FEE7FEE7FEE70448054957
:1001B000054A064B70470000B5040008ED00000832
:1001C0009000002090060020900200209002002065
:1001D0000FB41CB5074B06AA7B44694600900598EE
:1001E00000F0DBF80020694600F0EAF81CBC5DF87E
:1001F00014FB0000E50100002DE9F0410E46044625
:10020000002020622046E168884730B3252805D0C9
:10021000D4E901219047206A401CF2E7E1682046BA
:1002200000278847050018D0A5F14100192802D8F9
:1002300020354FF400673246294620462760FFF7F5
:100240008FFF40B1012804D0F61D26F007060836BE
:10025000D8E7361DD6E72846DAE7206ABDE8F08100
:100260002DE9F0410646002410687529314616A58F
:1002700010D0AFF30080002802DA404213A507E057
:1002800031688A0701D512A502E0490704D511A5F6
:10029000012401E0AFF3008000210A2206F12407C7
:1002A00009E0B0FBF2FCB0FBF2F302FB1C003030C3
:1002B00078541846491C0028F3D123462A46304674
:1002C000BDE8F04100F00BB8000000002D00000078
:1002D0002B000000200000007047704770472DE998
:1002E000F0470D4699469246044600F124080168FD
:1002F000880604D5E06921F01001216000E00120AA
:10030000A84201DD471B00E00027A1697A1902EB32
:100310000900081AA0612078C00602D42046AFF375
:100320000080002608E0D4E901211AF80600904771
:10033000206A401C761C20624E45F4DB2078C00603
:100340000AD52046AFF3008006E0D4E90121302031
:100350009047206A401C2062381EA7F10107F4DC98
:1003600007E0D4E9012118F805009047206A401CF5
:100370002062281EA5F10105F3DC2046AFF30080C2
:100380002078000602D50220BDE8F0870120FBE7B7
:1003900001694A1C02610878704700B58FB0CDE949
:1003A00001310021059105497944CDE90310114639
:1003B0006846FFF721FF0FB000BD0000E5FFFFFF1B
:1003C0000A6802F8010B0A607047754600F02CF8C5
:1003D000AE4605006946534620F00700854618B032
:1003E00020B5FFF7E3FEBDE820404FF000064FF0D8
:1003F00000074FF000084FF0000B21F00701AC465A
:10040000ACE8C009ACE8C009ACE8C009ACE8C00978
:100410008D46704710B50446AFF300802046BDE816
:100420001040FFF7AFBE0000004870472C000020CE
:1004300001491820ABBEFEE726000200704700000D
:100440000C48006800F00200022811D10948001D84
:10045000006800F0200020280AD106484C300068CF
:10046000054908800348006820F00200014908603F
:1004700070470000002401400400002010B500284F
:1004800007DA0A07140E054A00F00F031B1FD454A5
:1004900003E00A07130E024A135410BD18ED00E0E2
:1004A00000E400E002480068401C01490860704711
:1004B00008000020704700002DE9F0413148006835
:1004C0004FF47A71B0FBF1F4601EB0F1807F00D37D
:1004D0000FE0601E4FF0E02148610F214FF0FF3028
:1004E000FFF7CCFF00204FF0E02188610720086172
:1004F00000BF00BF24490968C1F30220002213464F
:100500000146C1F10707042F01D9042701E0C1F119
:1005100007073E460F1D072F01D2002700E0CF1E20
:100520003D460127B7407F1E1740AF404FF0010CFA
:100530000CFA05FCACF1010C0CEA030C47EA0C04C4
:1005400021464FF0FF30FFF799FF0F48F030006869
:1005500020F080700C49F03108600846006840F0D7
:10056000807008600020094948600846006820F053
:10057000010008600846006840F001000860BDE81E
:10058000F0810000000000200CED00E0001000E011
:10059000044A116800BF034A1268521A8242FAD311
:1005A000704700000800002000F00EF9FFF784FFFC
:1005B00000F09EF97948806940F00400774988612D
:1005C0007748006820F04070754908600846006868
:1005D00020F0406008607148806940F400706F4905
:1005E00088610846406820F44040486008464068FA
:1005F00040F4804048606B48006820F470206949EE
:1006000008600846006820F480700860081D0068D3
:1006100040F00200091D08600846006820F40060F0
:1006200008600846006840F4602008605D48283093
:10063000006820F470005B49283108600625012617
:10064000584830300068711E01EB810105FA01F154
:10065000084354493031086052480C30006840F477
:10066000E01050490C3108604E48006840F020000E
:100670004C490860081D006840F00100091D086031
:1006800000BF00BF00BF00BF00BF4648001D00689C
:1006900040F001004349091D08600846006840F029
:1006A0000800086000BF3F48001D006800F0080017
:1006B0000828F8D03B48001D006840F00400394984
:1006C000091D086000BF3748001D006800F00400E5
:1006D0000428F8D01221344B1B68C3F302200024F5
:1006E00027460346C3F10709B9F1040F02D94FF0B9
:1006F000040901E0C3F10709C84603F10409B9F18F
:10070000070F02D24FF0000901E0A3F10309CC4624
:100710004FF0010909FA08F9A9F1010909EA0409E8
:1007200009FA0CF94FF0010A0AFA0CFAAAF1010AC7
:100730000AEA070A49EA0A0200BF002908DA100794
:10074000040E19480C3001F00F031B1FC45403E0C2
:100750001007030E1548435400BF122001218140A9
:100760004209920002F1E022C2F8001100BF0D48D8
:10077000001D006840F480000A49091D08600BE074
:100780000B4802880BA10F48FFF722FD0D4800F02F
:1007900023F96420FFF7FCFEF2E70000001002409E
:1007A00000080140042401400CED00E000E400E0FA
:1007B00004000020414443312028434836293D2588
:1007C000640D0A000C0000204248C06940F08050CF
:1007D0004049C861042002463F4B19684FF6FF03A9
:1007E00019403E4B0B4343EA02213B4B196000BFCB
:1007F0003848806940F001003649886138484068CF
:1008000020F0E060364948600846406840F00070DB
:1008100048603048806940F004002E4988613148C2
:10082000006840F010002F4908600846006820F07A
:10083000070008600846006840F00200086025488C
:10084000006840F480302349086000BF21480068F8
:1008500000F40030B0F5003FF8D11E48406840F485
:1008600080301C4948600846406848600846406837
:1008700040F4E01048600846006840F0807008606E
:1008800000BF1448006800F00070B0F1007FF8D19C
:10089000104840680F4948600846406840F480604E
:1008A00048600846406848600846406840F00200DA
:1008B000486000BF0748406800F00C000828F9D1E4
:1008C00009480A4908600348806940F0200001494E
:1008D00088617047001002400CED00E00000FA054E
:1008E000000001400020024000A24A040000002055
:1008F0002E48806940F004002C4988612C4800682B
:1009000020F440702A4908600846006820F44060DE
:1009100008600846006840F4806008600846006887
:1009200020F0300008600846006840F020000860B1
:100930000846006820F0C00008600846006840F0E3
:10094000800008601948806940F480401749886138
:100950001848006820F4805016490860084600686E
:1009600020F4806008600846006840F008000860D5
:100970000846006840F004000860081D006820F484
:100980004050091D0860081D006820F40070091D12
:10099000086041F64C500749091F0860081D0068AF
:1009A00040F40050091D086070470000001002402C
:1009B000040801400C380140C0F30801054A1160E9
:1009C00000BF0449091F096801F080018029F8D19E
:1009D000704700000438014010B50346002405E0CC
:1009E0002146621CD4B2585CFFF7E6FF185D002870
:1009F000F6D110BD140A0008000000200C00000011
:100A000028010008200A00080C00002084060000CD
:100A1000440100080024F400000000000000000071
:04000005080000ED02
:00000001FF
