:020000040800F2
:10000000880600208901000891010008930100087A
:100010009501000897010008990100080000000000
:100020000000000000000000000000009B0100082C
:100030009D010008000000009F0100086D020008FB
:10004000A3010008A3010008A3010008A301000800
:10005000A3010008A3010008A3010008A3010008F0
:10006000A3010008A3010008A3010008A3010008E0
:10007000A3010008A3010008A3010008A3010008D0
:10008000A3010008A3010008A3010008A3010008C0
:10009000A3010008A3010008A3010008A3010008B0
:1000A000A3010008A3010008A3010008A3010008A0
:1000B000A3010008A3010008A3010008A301000890
:1000C000A3010008A3010008A3010008A301000880
:1000D000A3010008A3010008A3010008A301000870
:1000E000A3010008A3010008A301000800F002F822
:1000F00000F03AF80AA090E8000C82448344AAF188
:100100000107DA4501D100F02FF8AFF2090EBAE885
:100110000F0013F0010F18BFFB1A43F0010318473B
:100120002808000048080000103A24BF78C878C1A9
:10013000FAD8520724BF30C830C144BF04680C60ED
:10014000704700000023002400250026103A28BF35
:1001500078C1FBD8520728BF30C148BF0B60704739
:100160001FB51FBD10B510BD00F031F81146FFF7E7
:10017000F7FF00F095FA00F04FF803B4FFF7F2FF35
:1001800003BC00F057F800000948804709480047C1
:10019000FEE7FEE7FEE7FEE7FEE7FEE7FEE7FEE737
:1001A000FEE7FEE704480549054A064B7047000094
:1001B0007D020008ED00000888000020880600206D
:1001C00088020020880200207047704770477546FB
:1001D00000F02CF8AE4605006946534620F00700B3
:1001E000854618B020B5FFF7DDFFBDE820404FF091
:1001F00000064FF000074FF000084FF0000B21F011
:100200000701AC46ACE8C009ACE8C009ACE8C009DD
:10021000ACE8C0098D46704710B50446AFF30080C6
:100220002046BDE81040FFF7A8BF00000048704717
:100230002400002001491820ABBEFEE72600020082
:100240007047000010B5002807DA0A07140E054AA7
:1002500000F00F031B1FD45403E00A07130E024AD9
:10026000135410BD18ED00E000E400E002480068FF
:10027000401C01490860704714000020704710B509
:1002800000F0EAF810BD2DE9F04105460F4616468C
:100290009846002400F0D0F96906080E002100F00D
:1002A000A5F8384600F0ECF900F0C6F96906080E2A
:1002B000012100F09BF804E000F092F93055601C39
:1002C000C4B2A8F10100A042F6DC00F09FF930555D
:1002D00000F0C4F9BDE8F0812DE9F04105460E4675
:1002E00017469846002400F0A7F96906080E002179
:1002F00000F07CF8304600F0C3F904E0385D00F00F
:10030000BFF9601CC4B24445F8DB00F0A7F9BDE8B2
:10031000F08100002DE9F041314800684FF47A7116
:10032000B0FBF1F4601EB0F1807F00D30FE0601EDF
:100330004FF0E02148610F214FF0FF30FFF782FFBF
:1003400000204FF0E02188610720086100BF00BF56
:1003500024490968C1F30220002213460146C1F175
:100360000707042F01D9042701E0C1F107073E4622
:100370000F1D072F01D2002700E0CF1E3D460127A9
:10038000B7407F1E1740AF404FF0010C0CFA05FC40
:10039000ACF1010C0CEA030C47EA0C0421464FF0C7
:1003A000FF30FFF74FFF0F48F030006820F08070FB
:1003B0000C49F03108600846006840F08070086021
:1003C0000020094948600846006820F001000860E4
:1003D0000846006840F001000860BDE8F0810000B8
:1003E000000000200CED00E0001000E030B50546F4
:1003F0000C4614B925F0010503E0012C01D145F0AC
:1004000001050948056034B900BF084800F012F83A
:100410000028FAD007E0012C05D100BF044800F005
:1004200009F80028FAD030BD1054004082000700BF
:100430000200030010B5014606480268001D03686B
:1004400042EA034404EA0100884201D1012010BDC0
:100450000020FCE71454004070B55B4DED6945F495
:100460000015594EF56104205849594DB1FBF5F579
:10047000ABB20024574A584D2D6805F00105564E81
:10048000356035462D6825F00805356035462D6800
:1004900025F002053560351D2D6825F03F05361D18
:1004A000356035462D681D433560351F2D6825F4B0
:1004B0008065361F3560484D1C352D6825F4804514
:1004C000454E1C363560444D08352D6825F40045F1
:1004D000414E0836356035462D6835601546AA42CE
:1004E00018D85500B1FBF5F5A8B2C0F30B05042DE3
:1004F00000DA0420384D1C352D6825F40045364EB1
:100500001C36356035462D68054335605D1C361D4B
:1005100035603CE06CB902EB4205B1FBF5F5A8B2E1
:100520002D4D1C352D6825F480452B4E1C3635602D
:1005300010E0012C0ED102EBC20505EB0215B1FB58
:10054000F5F5A8B2244D1C352D6845F48045224EA2
:100550001C363560C0F30B05012D01DA40F00100B7
:100560001D4D1C352D6845F400451B4E1C3635606D
:1005700035462D68054335604FF496755D434FF45D
:100580007A7695FBF6F56D1C134E20363560124DCC
:100590002D6845F00105104E35600B4DAD6945F0F5
:1005A0000805094EB5610D4D2D6825F04C550B4ED3
:1005B000356035462D6845F00855356035462D685F
:1005C00045F04C45356070BD0010024000512502D9
:1005D00040420F00A086010000540040000C014082
:1005E00000B50848006840F480600649086000BF14
:1005F0000548FFF71FFF0028FAD0024810300068B6
:10060000C0B200BD005400404000030000B50848DF
:10061000006820F480600649086000BF0548FFF7C5
:1006200009FF0028FAD0024810300068C0B200BDAF
:10063000005400404000030000B50648006840F444
:1006400080700449086000BF0348FFF7F3FE0028EC
:10065000FAD000BD005400400100030007480068C4
:1006600040F400700549086000BF04481430006879
:1006700000F010001028F8D070470000005400402F
:1006800010B504460448046000BF0448FFF7D2FEDA
:100690000028FAD010BD000010540040840007006C
:1006A00000F03CF8FFF736FE00F0CCF8FFF7E7FD6E
:1006B0000C23134A00215020FFF70EFE1EE000F02D
:1006C00027F810490968401AB0F57A7F16D300F070
:1006D0001FF80C4908600C230B4A00215020FFF73B
:1006E000D2FD002405E00849085D00F00FF9601C08
:1006F000C4B20C2CF7DB05A000F018F9DFE700000E
:100700000400002010000020180000200D0A000046
:100710000148006870470000140000204248C0698A
:1007200040F080504049C861042002463F4B1968A0
:100730004FF6FF0319403E4B0B4343EA02213B4B6C
:10074000196000BF3848806940F00100364988616F
:100750003848406820F0E060364948600846406804
:1007600040F0007048603048806940F004002E4935
:1007700088613148006840F010002F490860084641
:10078000006820F0070008600846006840F002009A
:1007900008602548006840F480302349086000BFA5
:1007A0002148006800F40030B0F5003FF8D11E4841
:1007B000406840F480301C49486008464068486002
:1007C0000846406840F4E01048600846006840F081
:1007D0008070086000BF1448006800F00070B0F13D
:1007E000007FF8D1104840680F49486008464068CB
:1007F00040F48060486008464068486008464068A9
:1008000040F00200486000BF0748406800F00C005C
:100810000828F9D109480A4908600348806940F06E
:100820002000014988617047001002400CED00E093
:100830000000FA05000001400020024000A24A0426
:10084000000000202E48806940F004002C49886197
:100850002C48006820F440702A4908600846006867
:1008600020F4406008600846006840F4806008603A
:100870000846006820F0300008600846006840F034
:10088000200008600846006820F0C00008600846A4
:10089000006840F0800008601948806940F480409A
:1008A000174988611848006820F48050164908608C
:1008B0000846006820F4806008600846006840F040
:1008C000080008600846006840F004000860081D41
:1008D000006820F44050091D0860081D006820F4DD
:1008E0000070091D086041F64C500749091F086057
:1008F000081D006840F40050091D086070470000A2
:1009000000100240040801400C380140C0F3080107
:10091000054A116000BF0449091F096801F0800100
:100920008029F8D1704700000438014010B5034613
:10093000002405E02146621CD4B2585CFFF7E6FFB4
:10094000185D0028F6D110BD6809000800000020DD
:100950001800000028010008800900081800002085
:1009600070060000440100080024F40048656C6C27
:100970006F20576F726C64210000000000000000BF
:04000005080000ED02
:00000001FF
