:020000040800F2
:10000000680600208901000891010008930100089A
:100010009501000897010008990100080000000000
:100020000000000000000000000000009B0100082C
:100030009D010008000000009F01000895020008D3
:10004000A3010008A3010008A3010008A301000800
:10005000A3010008A3010008A3010008A3010008F0
:10006000A3010008A3010008A3010008A3010008E0
:10007000A3010008A3010008A3010008A3010008D0
:10008000A3010008A3010008A3010008A3010008C0
:10009000A3010008A3010008A3010008A3010008B0
:1000A000A3010008A3010008A3010008A3010008A0
:1000B000A3010008A3010008A3010008A301000890
:1000C000A3010008A3010008A3010008A301000880
:1000D000A3010008A3010008A3010008A301000870
:1000E000A3010008A3010008A301000800F002F822
:1000F00000F03AF80AA090E8000C82448344AAF188
:100100000107DA4501D100F02FF8AFF2090EBAE885
:100110000F0013F0010F18BFFB1A43F0010318473B
:10012000A8040000C8040000103A24BF78C878C1B1
:10013000FAD8520724BF30C830C144BF04680C60ED
:10014000704700000023002400250026103A28BF35
:1001500078C1FBD8520728BF30C148BF0B60704739
:100160001FB51FBD10B510BD00F031F81146FFF7E7
:10017000F7FF00F011F900F04FF803B4FFF7F2FFBA
:1001800003BC00F057F800000948804709480047C1
:10019000FEE7FEE7FEE7FEE7FEE7FEE7FEE7FEE737
:1001A000FEE7FEE704480549054A064B7047000094
:1001B000A5020008ED000008680000206806002085
:1001C000680200206802002070477047704775463B
:1001D00000F02CF8AE4605006946534620F00700B3
:1001E000854618B020B5FFF7DDFFBDE820404FF091
:1001F00000064FF000074FF000084FF0000B21F011
:100200000701AC46ACE8C009ACE8C009ACE8C009DD
:10021000ACE8C0098D46704710B50446AFF30080C6
:100220002046BDE81040FFF7A8BF00000048704717
:100230000800002001491820ABBEFEE7260002009E
:100240007047000010B5002807DA0A07140E054AA7
:1002500000F00F031B1FD45403E00A07130E024AD9
:10026000135410BD18ED00E000E400E010B50028C4
:1002700007DA0A07140E054A00F00F031B1FD454B7
:1002800003E00A07130E024A135410BD18ED00E0F4
:1002900000E400E002480068401C01490860704723
:1002A00004000020704700002DE9F041314800684B
:1002B0004FF47A71B0FBF1F4601EB0F1807F00D38F
:1002C0000FE0601E4FF0E02148610F214FF0FF303A
:1002D000FFF7CCFF00204FF0E02188610720086184
:1002E00000BF00BF24490968C1F302200022134661
:1002F0000146C1F10707042F01D9042701E0C1F12C
:1003000007073E460F1D072F01D2002700E0CF1E32
:100310003D460127B7407F1E1740AF404FF0010C0C
:100320000CFA05FCACF1010C0CEA030C47EA0C04D6
:1003300021464FF0FF30FFF799FF0F48F03000687B
:1003400020F080700C49F03108600846006840F0E9
:10035000807008600020094948600846006820F065
:10036000010008600846006840F001000860BDE830
:10037000F0810000000000200CED00E0001000E023
:10038000044A116800BF034A1268521A8242FAD323
:10039000704700000400002000F082F8FFF784FF9F
:1003A0003B4800684FF47A71B0FBF1F4601EB0F185
:1003B000807F00D30FE0601E4FF0E02148610F21E5
:1003C0004FF0FF30FFF73EFF00204FF0E021886143
:1003D0000720086100BF00BF2E490968C1F3022051
:1003E000002213460146C1F10707042F01D9042753
:1003F00001E0C1F107073E460F1D072F01D200277C
:1004000000E0CF1E3D460127B7407F1E1740AF409A
:100410004FF0010C0CFA05FCACF1010C0CEA030CDA
:1004200047EA0C0421464FF0FF30FFF70BFF1A4854
:10043000806940F01000184988611848006940F44C
:100440000050164908610846406820F44010486092
:100450000846406840F4001048600846406820F4B0
:100460004000486013E00D48006940F000500B491F
:1004700008614FF4FA70FFF783FF0848006940F401
:100480000050064908614FF4FA70FFF779FFEAE778
:10049000000000200CED00E00010024000100140C0
:1004A0004248C06940F080504049C861042002467B
:1004B0003F4B19684FF6FF0319403E4B0B4343EA8D
:1004C00002213B4B196000BF3848806940F00100B1
:1004D000364988613848406820F0E0603649486015
:1004E0000846406840F0007048603048806940F03D
:1004F00004002E4988613148006840F010002F49FF
:1005000008600846006820F0070008600846006898
:1005100040F0020008602548006840F4803023491C
:10052000086000BF2148006800F40030B0F5003FCB
:10053000F8D11E48406840F480301C4948600846A5
:10054000406848600846406840F4E010486008464B
:10055000006840F08070086000BF1448006800F038
:100560000070B0F1007FF8D1104840680F49486032
:100570000846406840F4806048600846406848602B
:100580000846406840F00200486000BF07484068E5
:1005900000F00C000828F9D109480A49086003480E
:1005A000806940F0200001498861704700100240D6
:1005B0000CED00E00000FA050000014000200240C0
:1005C00000A24A0400000020E80500080000002006
:1005D0000800000028010008F005000808000020BD
:1005E00060060000440100080024F4000000000040
:04000005080000ED02
:00000001FF
