:020000040800F2
:100000009006002091010008990100089B0100085A
:100010009D0100089F010008A101000800000000E8
:10002000000000000000000000000000A301000824
:10003000A501000800000000A7010008A9010008B0
:10004000AB010008AB010008AB010008AB010008E0
:10005000AB010008AB010008AB010008AB010008D0
:10006000AB010008AB010008AB010008AB010008C0
:10007000AB010008AB010008AB010008AB010008B0
:10008000AB010008AB010008AB010008AB010008A0
:10009000AB010008AB010008AB010008AB01000890
:1000A000AB010008AB010008AB010008AB01000880
:1000B000AB010008AB010008AB010008AB01000870
:1000C000AB010008AB010008AB010008AB01000860
:1000D000AB010008AB010008AB010008AB01000850
:1000E000AB010008AB010008AB01000800F002F80A
:1000F00000F03FF80AA090E8000C82448344AAF183
:100100000107DA4501D100F034F8AFF2090EBAE880
:100110000F0013F0010F18BFFB1A43F0010318473B
:100120002407000044070000103A24BF78C878C1B3
:10013000FAD8520724BF30C830C144BF04680C60ED
:10014000704700000023002400250026103A28BF35
:1001500078C1FBD8520728BF30C148BF0B60704739
:10016000642900F07D80002070471FB51FBD10B5C9
:1001700010BD00F02AF91146FFF7F7FF00F060F913
:1001800000F048F903B4FFF7F2FF03BC00F050F9A8
:100190000948804709480047FEE7FEE7FEE7FEE71B
:1001A000FEE7FEE7FEE7FEE7FEE7FEE70448054957
:1001B000054A064B704700003F040008ED000008A8
:1001C0009000002090060020900200209002002065
:1001D0000FB41CB5074B06AA7B44694600900598EE
:1001E00000F0DBF80020694600F0EAF81CBC5DF87E
:1001F00014FB0000E50100002DE9F0410E46044625
:10020000002020622046E168884730B3252805D0C9
:10021000D4E901219047206A401CF2E7E1682046BA
:1002200000278847050018D0A5F14100192802D8F9
:1002300020354FF400673246294620462760FFF7F5
:100240008FFF40B1012804D0F61D26F007060836BE
:10025000D8E7361DD6E72846DAE7206ABDE8F08100
:100260002DE9F0410646002410687529314616A58F
:1002700010D0AFF30080002802DA404213A507E057
:1002800031688A0701D512A502E0490704D511A5F6
:10029000012401E0AFF3008000210A2206F12407C7
:1002A00009E0B0FBF2FCB0FBF2F302FB1C003030C3
:1002B00078541846491C0028F3D123462A46304674
:1002C000BDE8F04100F00BB8000000002D00000078
:1002D0002B000000200000007047704770472DE998
:1002E000F0470D4699469246044600F124080168FD
:1002F000880604D5E06921F01001216000E00120AA
:10030000A84201DD471B00E00027A1697A1902EB32
:100310000900081AA0612078C00602D42046AFF375
:100320000080002608E0D4E901211AF80600904771
:10033000206A401C761C20624E45F4DB2078C00603
:100340000AD52046AFF3008006E0D4E90121302031
:100350009047206A401C2062381EA7F10107F4DC98
:1003600007E0D4E9012118F805009047206A401CF5
:100370002062281EA5F10105F3DC2046AFF30080C2
:100380002078000602D50220BDE8F0870120FBE7B7
:1003900001694A1C02610878704700B58FB0CDE949
:1003A00001310021059105497944CDE90310114639
:1003B0006846FFF721FF0FB000BD0000E5FFFFFF1B
:1003C0000A6802F8010B0A607047754600F02CF8C5
:1003D000AE4605006946534620F00700854618B032
:1003E00020B5FFF7E3FEBDE820404FF000064FF0D8
:1003F00000074FF000084FF0000B21F00701AC465A
:10040000ACE8C009ACE8C009ACE8C009ACE8C00978
:100410008D46704710B50446AFF300802046BDE816
:100420001040FFF7AFBE0000004870472C000020CE
:1004300001491820ABBEFEE7260002007047704756
:1004400000F0EAF800F07CF96548806940F00400AB
:10045000634988616348006820F04C506149086036
:100460000846006820F04C4008600846006840F0EC
:10047000884008605A48C06940F002005849C86185
:100480005948006820F440705749086008460068E1
:1004900020F0600008600846006820F01000086046
:1004A0000846006820F0800008604FF6FF704E4953
:1004B0002C3108600220091F086000204A493031B1
:1004C000086049481430006840F001004649143182
:1004D00008604548006840F0010043490860424810
:1004E0000830006820F007003F49083108600846DE
:1004F000006840F0030008603B481830006820F0B6
:10050000F0003949183108600846006840F04000A2
:1005100008600846006820F00C0008600846006883
:1005200020F0030008600846006840F00100086001
:100530002D482030006840F002002B49203108602F
:100540000846006840F0010008602748183000683D
:1005500020F470402449183108600846006840F4CF
:10056000804008600846006820F440600860084643
:10057000006820F4407008600846006840F480700D
:10058000086019482030006840F0200016492031EA
:1005900008600846006840F0100008601FE012483C
:1005A00024300068114908800F480068C0F300102B
:1005B0000F4908700D4800880E49098888420ED0FE
:1005C0000B480378094802880BA11248FFF700FE88
:1005D000104800F029F90548008806490880DEE740
:1005E0000010024000080140000400400400002008
:1005F0000800002006000020436F756E7465723D90
:1006000025642C20446972656374696F6E3D2564AE
:100610000D0A00000C0000204248C06940F08050E4
:100620004049C861042002463F4B19684FF6FF035A
:1006300019403E4B0B4343EA02213B4B196000BF7C
:100640003848806940F00100364988613848406880
:1006500020F0E060364948600846406840F000708D
:1006600048603048806940F004002E498861314874
:10067000006840F010002F4908600846006820F02C
:10068000070008600846006840F00200086025483E
:10069000006840F480302349086000BF21480068AA
:1006A00000F40030B0F5003FF8D11E48406840F437
:1006B00080301C49486008464068486008464068E9
:1006C00040F4E01048600846006840F08070086020
:1006D00000BF1448006800F00070B0F1007FF8D14E
:1006E000104840680F4948600846406840F4806000
:1006F00048600846406848600846406840F002008C
:10070000486000BF0748406800F00C000828F9D195
:1007100009480A4908600348806940F020000149FF
:1007200088617047001002400CED00E00000FA05FF
:10073000000001400020024000A24A040000002006
:100740002E48806940F004002C4988612C480068DC
:1007500020F440702A4908600846006820F4406090
:1007600008600846006840F4806008600846006839
:1007700020F0300008600846006840F02000086063
:100780000846006820F0C00008600846006840F095
:10079000800008601948806940F4804017498861EA
:1007A0001848006820F48050164908600846006820
:1007B00020F4806008600846006840F00800086087
:1007C0000846006840F004000860081D006820F436
:1007D0004050091D0860081D006820F40070091DC4
:1007E000086041F64C500749091F0860081D006861
:1007F00040F40050091D08607047000000100240DE
:10080000040801400C380140C0F30801054A11609A
:1008100000BF0449091F096801F080018029F8D14F
:10082000704700000438014010B50346002405E07D
:100830002146621CD4B2585CFFF7E6FF185D002821
:10084000F6D110BD64080008000000200C00000074
:1008500028010008700800080C0000208406000031
:10086000440100080024F400000000000000000023
:04000005080000ED02
:00000001FF
