:020000040800F2
:10000000680600208901000891010008930100089A
:100010009501000897010008990100080000000000
:100020000000000000000000000000009B0100082C
:100030009D010008000000009F010008A1010008C8
:10004000A3010008A3010008A3010008A301000800
:10005000A3010008A3010008A3010008A3010008F0
:10006000A3010008A3010008A3010008A3010008E0
:10007000A3010008A3010008A3010008A3010008D0
:10008000A3010008A3010008A3010008A3010008C0
:10009000A3010008A3010008A3010008A3010008B0
:1000A000A3010008A3010008A3010008A3010008A0
:1000B000A3010008A3010008A3010008A301000890
:1000C000A3010008A3010008A3010008A301000880
:1000D000A3010008A3010008A3010008A301000870
:1000E000A3010008A3010008A301000800F002F822
:1000F00000F03AF80AA090E8000C82448344AAF188
:100100000107DA4501D100F02FF8AFF2090EBAE885
:100110000F0013F0010F18BFFB1A43F0010318473B
:100120005002000070020000103A24BF78C878C165
:10013000FAD8520724BF30C830C144BF04680C60ED
:10014000704700000023002400250026103A28BF35
:1001500078C1FBD8520728BF30C148BF0B60704739
:100160001FB51FBD10B510BD00F031F81146FFF7E7
:10017000F7FF00F067F800F04FF803B4FFF7F2FF65
:1001800003BC00F057F800000948804709480047C1
:10019000FEE7FEE7FEE7FEE7FEE7FEE7FEE7FEE737
:1001A000FEE7FEE704480549054A064B7047000094
:1001B00043020008ED0000086800002068060020E7
:1001C000680200206802002070477047704775463B
:1001D00000F02CF8AE4605006946534620F00700B3
:1001E000854618B020B5FFF7DDFFBDE820404FF091
:1001F00000064FF000074FF000084FF0000B21F011
:100200000701AC46ACE8C009ACE8C009ACE8C009DD
:10021000ACE8C0098D46704710B50446AFF30080C6
:100220002046BDE81040FFF7A8BF00000048704717
:100230000400002001491820ABBEFEE726000200A2
:10024000704770474348C06940F080504149C861D9
:1002500004200246404B19684FF6FF0319403F4BFC
:100260000B4343EA02213C4B196000BF39488069C7
:1002700040F00100374988613948406820F0E0606B
:10028000374948600846406840F00070486031488F
:10029000806940F004002F4988613248006840F0CE
:1002A0001000304908600846006820F00700086028
:1002B0000846006840F0020008602648006840F4E4
:1002C00080302449086000BF2248006800F40030F4
:1002D000B0F5003FF8D11F48406840F480301D4918
:1002E00048600846406848600846406840F4E010AE
:1002F00048600846006840F08070086000BF1548FC
:10030000006800F00070B0F1007FF8D1114840683B
:10031000104948600846406840F4806048600846DC
:10032000406848600846406840F00200486000BFEE
:100330000848406800F00C000828F9D10A480B4929
:1003400008600448806940F020000249886100BFCD
:10035000FEE70000001002400CED00E00000FA058E
:10036000000001400020024000A24A0400000020DA
:10037000900300080000002004000000280100088D
:1003800094030008040000206406000044010008F3
:040390000024F40051
:04000005080000ED02
:00000001FF
