:020000040800F2
:10000000880600208901000891010008930100087A
:100010009501000897010008990100080000000000
:100020000000000000000000000000009B0100082C
:100030009D010008000000009F010008A1010008C8
:10004000A3010008A3010008A3010008A301000800
:10005000A3010008A3010008A3010008A3010008F0
:10006000A3010008A3010008A3010008A3010008E0
:10007000A3010008A3010008A3010008A3010008D0
:10008000A3010008A3010008A3010008A3010008C0
:10009000A3010008A3010008A3010008A3010008B0
:1000A000A3010008A3010008A3010008A3010008A0
:1000B000A3010008A3010008A3010008A301000890
:1000C000A3010008A3010008A3010008A301000880
:1000D000A3010008A3010008A3010008A301000870
:1000E000A3010008A3010008A301000800F002F822
:1000F00000F03AF80AA090E8000C82448344AAF188
:100100000107DA4501D100F02FF8AFF2090EBAE885
:100110000F0013F0010F18BFFB1A43F0010318473B
:100120008C030000AC030000103A24BF78C878C1EB
:10013000FAD8520724BF30C830C144BF04680C60ED
:10014000704700000023002400250026103A28BF35
:1001500078C1FBD8520728BF30C148BF0B60704739
:100160001FB51FBD10B510BD00F031F81146FFF7E7
:10017000F7FF00F079F800F04FF803B4FFF7F2FF53
:1001800003BC00F057F800000948804709480047C1
:10019000FEE7FEE7FEE7FEE7FEE7FEE7FEE7FEE737
:1001A000FEE7FEE704480549054A064B7047000094
:1001B00043020008ED0000088800002088060020A7
:1001C00088020020880200207047704770477546FB
:1001D00000F02CF8AE4605006946534620F00700B3
:1001E000854618B020B5FFF7DDFFBDE820404FF091
:1001F00000064FF000074FF000084FF0000B21F011
:100200000701AC46ACE8C009ACE8C009ACE8C009DD
:10021000ACE8C0098D46704710B50446AFF30080C6
:100220002046BDE81040FFF7A8BF00000048704717
:100230002400002001491820ABBEFEE72600020082
:100240007047704710B5034607E018680C68A04275
:1002500001D0002010BD1B1D091D101EA2F10104BC
:10026000A2B2F2D10120F5E700F08CF84048806995
:1002700040F010003E4988613E48006940F400505B
:100280003C4908610846406820F440104860084630
:10029000406840F4001048600846406820F4400080
:1002A00048603348406940F00100314948613248B4
:1002B000806820F01000304988600846806840F46B
:1002C000804088600846806820F440508860084676
:1002D000806820F4406088600846806840F40060D0
:1002E00088600846806820F440708860084680680E
:1002F00040F4007088600846806840F080008860A4
:100300000846806840F0400088600846806820F019
:10031000200088600420C8601848086118484861B7
:100320000846806840F00100886000BF12480068FD
:1003300000F002000228F9D10F48406840F00100A7
:100340000D49486004220E490C48FFF77BFF012845
:1003500006D10848006940F000500649086105E0F0
:100360000448006940F400500249086100BFFEE7FC
:100370000010024000100140000002400400002074
:10038000140000204248C06940F080504049C861D4
:10039000042002463F4B19684FF6FF0319403E4BBD
:1003A0000B4343EA02213B4B196000BF3848806988
:1003B00040F00100364988613848406820F0E0602C
:1003C000364948600846406840F000704860304850
:1003D000806940F004002E4988613148006840F08F
:1003E00010002F4908600846006820F007000860E8
:1003F0000846006840F0020008602548006840F4A4
:1004000080302349086000BF2148006800F40030B4
:10041000B0F5003FF8D11E48406840F480301C49D8
:1004200048600846406848600846406840F4E0106C
:1004300048600846006840F08070086000BF1448BB
:10044000006800F00070B0F1007FF8D110484068FB
:100450000F4948600846406840F48060486008469C
:10046000406848600846406840F00200486000BFAD
:100470000748406800F00C000828F9D109480A49EB
:1004800008600348806940F0200001498861704796
:10049000001002400CED00E00000FA0500000140F1
:1004A0000020024000A24A0400000020CC04000802
:1004B000000000201400000028010008E0040008EB
:1004C0001400002074060000440100080024F40019
:1004D000AAAAAAAABBBBBBBBCCCCCCCCDDDDDDDDE4
:04000005080000ED02
:00000001FF
