:020000040800F2
:10000000680600208901000891010008930100089A
:100010009501000897010008990100080000000000
:100020000000000000000000000000009B0100082C
:100030009D010008000000009F010008A1010008C8
:10004000A3010008A3010008A3010008A301000800
:10005000A3010008A3010008A3010008A3010008F0
:10006000A3010008A3010008A3010008A3010008E0
:10007000A3010008A3010008A3010008A3010008D0
:10008000A3010008A3010008A3010008A3010008C0
:10009000A3010008A3010008A3010008A3010008B0
:1000A000A3010008A3010008A3010008A3010008A0
:1000B000A3010008A301000845020008A3010008ED
:1000C000A3010008A3010008A3010008A301000880
:1000D000A3010008A3010008A3010008A301000870
:1000E000A3010008A3010008A301000800F002F822
:1000F00000F03AF80AA090E8000C82448344AAF188
:100100000107DA4501D100F02FF8AFF2090EBAE885
:100110000F0013F0010F18BFFB1A43F0010318473B
:100120001005000030050000103A24BF78C878C1DF
:10013000FAD8520724BF30C830C144BF04680C60ED
:10014000704700000023002400250026103A28BF35
:1001500078C1FBD8520728BF30C148BF0B60704739
:100160001FB51FBD10B510BD00F031F81146FFF7E7
:10017000F7FF00F0A3F800F04FF803B4FFF7F2FF29
:1001800003BC00F057F800000948804709480047C1
:10019000FEE7FEE7FEE7FEE7FEE7FEE7FEE7FEE737
:1001A000FEE7FEE704480549054A064B7047000094
:1001B00043020008ED0000086800002068060020E7
:1001C000680200206802002070477047704775463B
:1001D00000F02CF8AE4605006946534620F00700B3
:1001E000854618B020B5FFF7DDFFBDE820404FF091
:1001F00000064FF000074FF000084FF0000B21F011
:100200000701AC46ACE8C009ACE8C009ACE8C009DD
:10021000ACE8C0098D46704710B50446AFF30080C6
:100220002046BDE81040FFF7A8BF00000048704717
:100230000400002001491820ABBEFEE726000200A2
:100240007047704700201C49096801F0020102292B
:1002500015D11949091F096801F0020102290ED1BF
:1002600015492431086841F288310144124A243288
:1002700011601149096821F002010F4A11600E490D
:10028000096801F00401042915D10B49091F096807
:1002900001F0040104290ED107492831086842F20F
:1002A00010710144044A283211600349096821F0A1
:1002B0000401014A116070471008004000F024F961
:1002C0008C48806940F008008A4988618A48006843
:1002D00040F48000884908600846006840F4000047
:1002E000086085481038006820F04C508249103969
:1002F00008600846006840F008500860084600683A
:1003000020F04C4008600846006840F00840086053
:100310007848C06940F004007649C86177480068B1
:1003200020F44070754908600846006820F06000BD
:1003300008600846006820F0100008600846006861
:1003400020F0800008604FF6FF706C492C31086087
:1003500041F61F40091F08600020684930310860DD
:1003600066481430006840F00100644914310860A8
:100370006248006840F00100604908605F4818303A
:10038000006820F070005D49183108600846006878
:1003900040F0300008600846006820F00300086064
:1003A0000846006840F0040008600846006820F035
:1003B0000800086041F287305049343108604F48E6
:1003C0002030006820F002004C49203108600846C7
:1003D000006840F00100086048480C30006840F0B8
:1003E000020046490C31086044481830006820F487
:1003F000E0404249183108600846006840F4405027
:1004000008600846006820F44070086008460068EC
:1004100040F4806008600846006820F400600860CE
:1004200042F20F7035493831086034482030006896
:1004300020F020003149203108600846006840F073
:10044000100008602D480C30006840F004002B4973
:100450000C3108601E212A4B1B68C3F302200024C4
:1004600025460346C3F1070CBCF1040F02D94FF037
:10047000040C01E0C3F1070C674603F1040CBCF166
:10048000070F02D24FF0000C01E0A3F1030C664607
:100490004FF0010C0CFA07FCACF1010C0CEA040C57
:1004A0000CFA06FC4FF0010808FA06F8A8F101085A
:1004B00008EA05084CEA080200BF002908DA10071C
:1004C000040E0F480C3001F00F031B1FC45403E04F
:1004D0001007030E0B48435400BF1E20012181402A
:1004E0004209920002F1E022C2F8001100BF00BFF1
:1004F000FEE7000000100240100C01400008004020
:100500000CED00E000E400E04248C06940F080509B
:100510004049C861042002463F4B19684FF6FF036B
:1005200019403E4B0B4343EA02213B4B196000BF8D
:100530003848806940F00100364988613848406891
:1005400020F0E060364948600846406840F000709E
:1005500048603048806940F004002E498861314885
:10056000006840F010002F4908600846006820F03D
:10057000070008600846006840F00200086025484F
:10058000006840F480302349086000BF21480068BB
:1005900000F40030B0F5003FF8D11E48406840F448
:1005A00080301C49486008464068486008464068FA
:1005B00040F4E01048600846006840F08070086031
:1005C00000BF1448006800F00070B0F1007FF8D15F
:1005D000104840680F4948600846406840F4806011
:1005E00048600846406848600846406840F002009D
:1005F000486000BF0748406800F00C000828F9D1A7
:1006000009480A4908600348806940F02000014910
:1006100088617047001002400CED00E00000FA0510
:10062000000001400020024000A24A040000002017
:100630005006000800000020040000002801000807
:10064000540600080400002064060000440100086D
:040650000024F4008E
:04000005080000ED02
:00000001FF
