:020000040800F2
:100000008806002091010008990100089B01000862
:100010009D0100089F010008A101000800000000E8
:10002000000000000000000000000000A301000824
:10003000A501000800000000A7010008A9010008B0
:10004000AB010008AB010008AB010008AB010008E0
:10005000AB010008AB010008AB010008AB010008D0
:10006000AB010008AB010008AB010008B1040008B7
:10007000AB010008AB010008AB010008AB010008B0
:10008000AB010008AB01000841040008AB01000807
:10009000AB010008AB010008AB010008AB01000890
:1000A000AB010008AB010008AB010008AB01000880
:1000B000AB010008AB010008AB010008AB01000870
:1000C000AB010008AB010008AB010008AB01000860
:1000D000AB010008AB010008AB010008AB01000850
:1000E000AB010008AB010008AB01000800F002F80A
:1000F00000F03FF80AA090E8000C82448344AAF183
:100100000107DA4501D100F034F8AFF2090EBAE880
:100110000F0013F0010F18BFFB1A43F0010318473B
:10012000E0090000000A0000103A24BF78C878C136
:10013000FAD8520724BF30C830C144BF04680C60ED
:10014000704700000023002400250026103A28BF35
:1001500078C1FBD8520728BF30C148BF0B60704739
:10016000642900F07D80002070471FB51FBD10B5C9
:1001700010BD00F02AF91146FFF7F7FF00F012FA60
:1001800000F048F903B4FFF7F2FF03BC00F050F9A8
:100190000948804709480047FEE7FEE7FEE7FEE71B
:1001A000FEE7FEE7FEE7FEE7FEE7FEE70448054957
:1001B000054A064B70470000A1050008ED00000845
:1001C0008800002088060020880200208802002085
:1001D0000FB41CB5074B06AA7B44694600900598EE
:1001E00000F0DBF80020694600F0EAF81CBC5DF87E
:1001F00014FB0000E50100002DE9F0410E46044625
:10020000002020622046E168884730B3252805D0C9
:10021000D4E901219047206A401CF2E7E1682046BA
:1002200000278847050018D0A5F14100192802D8F9
:1002300020354FF400673246294620462760FFF7F5
:100240008FFF40B1012804D0F61D26F007060836BE
:10025000D8E7361DD6E72846DAE7206ABDE8F08100
:100260002DE9F0410646002410687529314616A58F
:1002700010D0AFF30080002802DA404213A507E057
:1002800031688A0701D512A502E0490704D511A5F6
:10029000012401E0AFF3008000210A2206F12407C7
:1002A00009E0B0FBF2FCB0FBF2F302FB1C003030C3
:1002B00078541846491C0028F3D123462A46304674
:1002C000BDE8F04100F00BB8000000002D00000078
:1002D0002B000000200000007047704770472DE998
:1002E000F0470D4699469246044600F124080168FD
:1002F000880604D5E06921F01001216000E00120AA
:10030000A84201DD471B00E00027A1697A1902EB32
:100310000900081AA0612078C00602D42046AFF375
:100320000080002608E0D4E901211AF80600904771
:10033000206A401C761C20624E45F4DB2078C00603
:100340000AD52046AFF3008006E0D4E90121302031
:100350009047206A401C2062381EA7F10107F4DC98
:1003600007E0D4E9012118F805009047206A401CF5
:100370002062281EA5F10105F3DC2046AFF30080C2
:100380002078000602D50220BDE8F0870120FBE7B7
:1003900001694A1C02610878704700B58FB0CDE949
:1003A00001310021059105497944CDE90310114639
:1003B0006846FFF721FF0FB000BD0000E5FFFFFF1B
:1003C0000A6802F8010B0A607047754600F02CF8C5
:1003D000AE4605006946534620F00700854618B032
:1003E00020B5FFF7E3FEBDE820404FF000064FF0D8
:1003F00000074FF000084FF0000B21F00701AC465A
:10040000ACE8C009ACE8C009ACE8C009ACE8C00978
:100410008D46704710B50446AFF300802046BDE816
:100420001040FFF7AFBE00000048704728000020D2
:1004300001491820ABBEFEE726000200704700000D
:1004400010B51148006800F0040004281AD10E48C5
:10045000001D006800F08000802813D10A483C305D
:1004600000680A4908800846028809A10F48FFF77A
:10047000AFFE0E4800F036FB0348006820F0040091
:100480000149086010BD0000002401400600002062
:1004900041444331202843483720496E6A656374DC
:1004A0006564293D25640D0A000000000800002055
:1004B00010B50E48006800F00200022814D10B4865
:1004C000806800F0020002280ED10948028809A1C4
:1004D0000E48FFF77DFE0D4800F004FB034840681E
:1004E00040F001000149486010BD000000000240DA
:1004F00004000020414443312028434836205265FF
:1005000067756C6172293D25640D0A0008000020A2
:1005100000F01F02012191404209920002F1E02205
:10052000C2F800117047F0B503460C4603F007010E
:10053000C1F10700042801D9042001E0C1F107003E
:100540000646081D072801D2002000E0C81E054607
:100550000120B040401E2040A8400127AF407F1E30
:1005600017403843F0BD000002480068C0F3022085
:10057000704700000CED00E010B5002807DA0A070C
:10058000140E054A00F00F031B1FD45403E00A07A2
:10059000130E024A135410BD18ED00E000E400E011
:1005A0007047000000F096F900F028FAC34880690F
:1005B00040F00400C1498861C148006820F04C50F7
:1005C000BF4908600846006820F04C400860BB48FE
:1005D000406940F00100B9494861BA48806820F09C
:1005E0001000B84988600846806820F48040886020
:1005F0000846806820F4405088600846806820F4EF
:10060000406088600846806840F4806088600846E2
:10061000806820F4407088600846806840F48070EC
:1006200088600846806840F08000886008468068DE
:1006300020F0400088600846806840F02000886014
:100640000120C860A0480861A04848610846806849
:1006500040F0020088600846806840F00100886031
:100660009648C06940F004009449C8619848006801
:1006700020F44070964908600846006820F0600049
:1006800008600846006820F010000860084600680E
:1006900020F08000086047F22F508D492C3108600F
:1006A00041F61F40091F0860002089493031086069
:1006B00087481430006840F0010085491431086013
:1006C0008348006840F00100814908608048083094
:1006D000006820F080007E4908310860081F00682B
:1006E00020F07000091F08600846006840F02000F4
:1006F00008607248806940F400707049886108465B
:10070000406820F4404048600846406840F480401B
:1007100048606D484838006820F470206A494839BC
:1007200008600846006820F480700860081D0068B2
:1007300040F00200091D08600846006820F40060CF
:1007400008600846006840F4602008600126012720
:100750005D4820380168701E41EA00505A4920392E
:100760000860594814380168781E41EA005056491B
:100770001439086006240125081F0068691E01EB72
:10078000810104FA01F108434F49183908604E48C5
:100790003C38006840F4E0104B493C3908604A4856
:1007A0004438006840F480704749443908600724A1
:1007B00000BF454814380068C5F1040101EB810110
:1007C00004FA01F108434049143908603E483C38B6
:1007D000006840F460003C493C3908603A484438BD
:1007E000006820F4E0403849443908600846006851
:1007F00040F4A0400860081F006840F08000091F16
:100800000860081D006840F00100091D086000BF75
:1008100000BF00BF00BF00BF2B484438006840F055
:1008200001002949443908600846006840F0080082
:10083000086000BF24484438006800F00800082819
:10084000F8D021484438006840F004001E4944397B
:10085000086000BF1C484438006800F00400042809
:10086000F8D0FFF781FE814600221146FFF75BFEBC
:10087000804641460B20FFF77FFEFFF775FE81465D
:1008800000221146FFF74FFE804641461220FFF737
:1008900073FE0B20FFF73CFE1220FFF739FE0A48DB
:1008A0004438006840F4800007494439086008462D
:1008B000006840F40040086000BFFEE700100240FE
:1008C00000080140000002404C24014004000020C8
:1008D000000800404248C06940F080504049C8616B
:1008E000042002463F4B19684FF6FF0319403E4B68
:1008F0000B4343EA02213B4B196000BF3848806933
:1009000040F00100364988613848406820F0E060D6
:10091000364948600846406840F0007048603048FA
:10092000806940F004002E4988613148006840F039
:1009300010002F4908600846006820F00700086092
:100940000846006840F0020008602548006840F44E
:1009500080302349086000BF2148006800F400305F
:10096000B0F5003FF8D11E48406840F480301C4983
:1009700048600846406848600846406840F4E01017
:1009800048600846006840F08070086000BF144866
:10099000006800F00070B0F1007FF8D110484068A6
:1009A0000F4948600846406840F480604860084647
:1009B000406848600846406840F00200486000BF58
:1009C0000748406800F00C000828F9D109480A4996
:1009D00008600348806940F0200001498861704741
:1009E000001002400CED00E00000FA05000001409C
:1009F0000020024000A24A04000000202E48806926
:100A000040F004002C4988612C48006820F44070B4
:100A10002A4908600846006820F4406008600846DB
:100A2000006840F4806008600846006820F03000EC
:100A300008600846006840F020000860084600682A
:100A400020F0C00008600846006840F080000860A0
:100A50001948806940F48040174988611848006847
:100A600020F48050164908600846006820F4806031
:100A700008600846006840F0080008600846006802
:100A800040F004000860081D006820F44050091D73
:100A90000860081D006820F40070091D086041F618
:100AA0004C500749091F0860081D006840F40050B9
:100AB000091D086070470000001002400408014052
:100AC0000C380140C0F30801054A116000BF044919
:100AD000091F096801F080018029F8D170470000E2
:100AE0000438014010B50346002405E02146621C8D
:100AF000D4B2585CFFF7E6FF185D0028F6D110BDB0
:100B0000200B000800000020080000002801000859
:100B1000280B00080800002080060000440100089F
:080B20000024F40000000000B5
:04000005080000ED02
:00000001FF
