:020000040800F2
:100000009006002091010008990100089B0100085A
:100010009D0100089F010008A101000800000000E8
:10002000000000000000000000000000A301000824
:10003000A501000800000000A7010008D104000885
:10004000AB010008AB010008AB010008AB010008E0
:10005000AB010008AB010008AB010008AB010008D0
:10006000AB010008AB010008AB010008AB010008C0
:10007000AB010008AB010008AB010008AB010008B0
:10008000AB010008AB01000841040008AB01000807
:10009000AB010008AB010008AB010008AB01000890
:1000A000AB010008AB010008AB010008AB01000880
:1000B000AB010008AB010008AB010008AB01000870
:1000C000AB010008AB010008AB010008AB01000860
:1000D000AB010008AB010008AB010008AB01000850
:1000E000AB010008AB010008AB01000800F002F80A
:1000F00000F03FF80AA090E8000C82448344AAF183
:100100000107DA4501D100F034F8AFF2090EBAE880
:100110000F0013F0010F18BFFB1A43F0010318473B
:1001200094090000B4090000103A24BF78C878C1CF
:10013000FAD8520724BF30C830C144BF04680C60ED
:10014000704700000023002400250026103A28BF35
:1001500078C1FBD8520728BF30C148BF0B60704739
:10016000642900F07D80002070471FB51FBD10B5C9
:1001700010BD00F02AF91146FFF7F7FF00F02AFA48
:1001800000F048F903B4FFF7F2FF03BC00F050F9A8
:100190000948804709480047FEE7FEE7FEE7FEE71B
:1001A000FEE7FEE7FEE7FEE7FEE7FEE70448054957
:1001B000054A064B70470000E1040008ED00000806
:1001C0009000002090060020900200209002002065
:1001D0000FB41CB5074B06AA7B44694600900598EE
:1001E00000F0DBF80020694600F0EAF81CBC5DF87E
:1001F00014FB0000E50100002DE9F0410E46044625
:10020000002020622046E168884730B3252805D0C9
:10021000D4E901219047206A401CF2E7E1682046BA
:1002200000278847050018D0A5F14100192802D8F9
:1002300020354FF400673246294620462760FFF7F5
:100240008FFF40B1012804D0F61D26F007060836BE
:10025000D8E7361DD6E72846DAE7206ABDE8F08100
:100260002DE9F0410646002410687529314616A58F
:1002700010D0AFF30080002802DA404213A507E057
:1002800031688A0701D512A502E0490704D511A5F6
:10029000012401E0AFF3008000210A2206F12407C7
:1002A00009E0B0FBF2FCB0FBF2F302FB1C003030C3
:1002B00078541846491C0028F3D123462A46304674
:1002C000BDE8F04100F00BB8000000002D00000078
:1002D0002B000000200000007047704770472DE998
:1002E000F0470D4699469246044600F124080168FD
:1002F000880604D5E06921F01001216000E00120AA
:10030000A84201DD471B00E00027A1697A1902EB32
:100310000900081AA0612078C00602D42046AFF375
:100320000080002608E0D4E901211AF80600904771
:10033000206A401C761C20624E45F4DB2078C00603
:100340000AD52046AFF3008006E0D4E90121302031
:100350009047206A401C2062381EA7F10107F4DC98
:1003600007E0D4E9012118F805009047206A401CF5
:100370002062281EA5F10105F3DC2046AFF30080C2
:100380002078000602D50220BDE8F0870120FBE7B7
:1003900001694A1C02610878704700B58FB0CDE949
:1003A00001310021059105497944CDE90310114639
:1003B0006846FFF721FF0FB000BD0000E5FFFFFF1B
:1003C0000A6802F8010B0A607047754600F02CF8C5
:1003D000AE4605006946534620F00700854618B032
:1003E00020B5FFF7E3FEBDE820404FF000064FF0D8
:1003F00000074FF000084FF0000B21F00701AC465A
:10040000ACE8C009ACE8C009ACE8C009ACE8C00978
:100410008D46704710B50446AFF300802046BDE816
:100420001040FFF7AFBE0000004870472C000020CE
:1004300001491820ABBEFEE726000200704700000D
:100440001648006800F00200022811D11348001D70
:10045000006800F0200020280AD110484C300068C5
:100460000F4908800D48006820F002000B49086021
:100470000A48006800F0010078B10848001D0068D3
:1004800000F04000402808D10120064908700348C8
:10049000006820F001000149086070470024014015
:1004A000040000200600002010B5002807DA0A0723
:1004B000140E054A00F00F031B1FD45403E00A0773
:1004C000130E024A135410BD18ED00E000E400E0E2
:1004D00002480068401C014908607047080000207D
:1004E000704700002DE9F041314800684FF47A71FF
:1004F000B0FBF1F4601EB0F1807F00D30FE0601E0E
:100500004FF0E02148610F214FF0FF30FFF7CCFFA3
:1005100000204FF0E02188610720086100BF00BF84
:1005200024490968C1F30220002213460146C1F1A3
:100530000707042F01D9042701E0C1F107073E4650
:100540000F1D072F01D2002700E0CF1E3D460127D7
:10055000B7407F1E1740AF404FF0010C0CFA05FC6E
:10056000ACF1010C0CEA030C47EA0C0421464FF0F5
:10057000FF30FFF799FF0F48F030006820F08070DF
:100580000C49F03108600846006840F0807008604F
:100590000020094948600846006820F00100086012
:1005A0000846006840F001000860BDE8F0810000E6
:1005B000000000200CED00E0001000E0044A11688B
:1005C00000BF034A1268521A8242FAD370470000F1
:1005D0000800002000F058F9FFF784FF00F0E8F968
:1005E0009C48806940F004009A4988619A480068F4
:1005F00020F04070984908600846006820F040608C
:1006000008609448806940F01000924988619348DE
:10061000406820F44010914948600846406840F422
:10062000001048600846406820F44000486089484F
:10063000806940F40070874988610846406820F46A
:10064000404048600846406840F480404860844824
:10065000006820F47020824908600846006820F491
:1006600080700860081D006840F00200091D0860E5
:100670000846006820F4006008600846006840F4FE
:100680006020086076482830006820F470007449C3
:100690002831086006240126714830300068711E38
:1006A00001EB810104FA01F108436D493031086022
:1006B0006B480C30006840F4E01069490C31086068
:1006C000674800682043664908600846006840F4AF
:1006D0000070086040F6C41061492031086040F2A3
:1006E000DC50091D08605E48006840F020005C494D
:1006F00008600846006840F040000860084600684E
:1007000040F400000860081D006840F00100091D69
:10071000086000BF00BF00BF00BF00BF5048001D01
:10072000006840F001004E49091D08600846006855
:1007300040F00800086000BF4948001D006800F054
:1007400008000828F8D04648001D006840F0040062
:100750004349091D086000BF4148001D006800F0C2
:1007600004000428F8D012213E4B1B68C3F302207A
:1007700000252F460346C3F10709B9F1040F02D93A
:100780004FF0040901E0C3F10709C84603F1040969
:10079000B9F1070F02D24FF0000901E0A3F10309FC
:1007A000CC464FF0010909FA08F9A9F1010909EA53
:1007B000050909FA0CF94FF0010A0AFA0CFAAAF134
:1007C000010A0AEA070A49EA0A0200BF002908DA10
:1007D0001007050E23480C3001F00F031B1FC554F2
:1007E00003E01007030E2048435400BF12200121EC
:1007F00081404209920002F1E022C2F8001100BFDC
:100800001748001D006840F480001549091D086064
:100810001FE01648028816A11948FFF7D9FC1848AE
:1008200000F03AF917480078012809D10B4800690F
:1008300040F000500949086100201249087005E0A5
:100840000648006940F40050044908616420FFF73D
:10085000B5FEDEE700100240000801400010014034
:10086000042401400CED00E000E400E0040000205E
:10087000414443312028434836293D25640D0A0070
:100880000C000020060000204248C06940F0805063
:100890004049C861042002463F4B19684FF6FF03E8
:1008A00019403E4B0B4343EA02213B4B196000BF0A
:1008B0003848806940F0010036498861384840680E
:1008C00020F0E060364948600846406840F000701B
:1008D00048603048806940F004002E498861314802
:1008E000006840F010002F4908600846006820F0BA
:1008F000070008600846006840F0020008602548CC
:10090000006840F480302349086000BF2148006837
:1009100000F40030B0F5003FF8D11E48406840F4C4
:1009200080301C4948600846406848600846406876
:1009300040F4E01048600846006840F080700860AD
:1009400000BF1448006800F00070B0F1007FF8D1DB
:10095000104840680F4948600846406840F480608D
:1009600048600846406848600846406840F0020019
:10097000486000BF0748406800F00C000828F9D123
:1009800009480A4908600348806940F0200001498D
:1009900088617047001002400CED00E00000FA058D
:1009A000000001400020024000A24A040000002094
:1009B0002E48806940F004002C4988612C4800686A
:1009C00020F440702A4908600846006820F440601E
:1009D00008600846006840F48060086008460068C7
:1009E00020F0300008600846006840F020000860F1
:1009F0000846006820F0C00008600846006840F023
:100A0000800008601948806940F480401749886177
:100A10001848006820F480501649086008460068AD
:100A200020F4806008600846006840F00800086014
:100A30000846006840F004000860081D006820F4C3
:100A40004050091D0860081D006820F40070091D51
:100A5000086041F64C500749091F0860081D0068EE
:100A600040F40050091D086070470000001002406B
:100A7000040801400C380140C0F30801054A116028
:100A800000BF0449091F096801F080018029F8D1DD
:100A9000704700000438014010B50346002405E00B
:100AA0002146621CD4B2585CFFF7E6FF185D0028AF
:100AB000F6D110BDD40A0008000000200C00000090
:100AC00028010008E00A00080C000020840600004D
:100AD000440100080024F4000000000000000000B1
:04000005080000ED02
:00000001FF
