:020000040800F2
:10000000680600208901000891010008930100089A
:100010009501000897010008990100080000000000
:100020000000000000000000000000009B0100082C
:100030009D010008000000009F010008A1010008C8
:10004000A3010008A3010008A3010008A301000800
:10005000A3010008A3010008A3010008A3010008F0
:10006000A3010008A3010008A3010008A3010008E0
:10007000A3010008A3010008A3010008A3010008D0
:10008000A3010008A3010008A3010008A3010008C0
:10009000A3010008A3010008A3010008A3010008B0
:1000A000A3010008A3010008A3010008A3010008A0
:1000B000A301000845020008A3010008A3010008ED
:1000C000A3010008A3010008A3010008A301000880
:1000D000A3010008A3010008A3010008A301000870
:1000E000A3010008A3010008A301000800F002F822
:1000F00000F03AF80AA090E8000C82448344AAF188
:100100000107DA4501D100F02FF8AFF2090EBAE885
:100110000F0013F0010F18BFFB1A43F0010318473B
:10012000EC0300000C040000103A24BF78C878C12A
:10013000FAD8520724BF30C830C144BF04680C60ED
:10014000704700000023002400250026103A28BF35
:1001500078C1FBD8520728BF30C148BF0B60704739
:100160001FB51FBD10B510BD00F031F81146FFF7E7
:10017000F7FF00F083F800F04FF803B4FFF7F2FF49
:1001800003BC00F057F800000948804709480047C1
:10019000FEE7FEE7FEE7FEE7FEE7FEE7FEE7FEE737
:1001A000FEE7FEE704480549054A064B7047000094
:1001B00043020008ED0000086800002068060020E7
:1001C000680200206802002070477047704775463B
:1001D00000F02CF8AE4605006946534620F00700B3
:1001E000854618B020B5FFF7DDFFBDE820404FF091
:1001F00000064FF000074FF000084FF0000B21F011
:100200000701AC46ACE8C009ACE8C009ACE8C009DD
:10021000ACE8C0098D46704710B50446AFF30080C6
:100220002046BDE81040FFF7A8BF00000048704717
:100230000400002001491820ABBEFEE726000200A2
:10024000704770470B48006800F0010088B109480A
:10025000001F006800F0010058B10748C06880F432
:1002600000500549C8600348006820F001000149BA
:1002700008607047100400400010014000F0B2F820
:100280005348806940F01000514988615148006925
:1002900040F400504F4908610846406820F440107F
:1002A00048600846406840F40010486008464068CE
:1002B00020F4400048604648C06940F002004449CC
:1002C000C8614548006820F440704349086008460A
:1002D000006820F0600008600846006820F0100008
:1002E00008600846006820F08000086042F20F7045
:1002F00039492C31086041F61F40091F0860002071
:1003000035493031086034481430006840F001004D
:1003100031491431086030480C30006840F0010069
:100320002D490C3108602C48006840F001002A4932
:1003300008601D21294B1B68C3F3022000242546B9
:100340000346C3F1070CBCF1040F02D94FF0040CB3
:1003500001E0C3F1070C674603F1040CBCF1070F81
:1003600002D24FF0000C01E0A3F1030C66464FF0FF
:10037000010C0CFA07FCACF1010C0CEA040C0CFAB1
:1003800006FC4FF0010808FA06F8A8F1010808EA8F
:1003900005084CEA080200BF002908DA1007040E1D
:1003A0000E480C3001F00F031B1FC45403E010076C
:1003B000030E0B48435400BF1D2001218140420918
:1003C000920002F1E022C2F8001100BF00BFFEE778
:1003D0000010024000100140000400400CED00E05D
:1003E00000E400E04248C06940F080504049C861E4
:1003F000042002463F4B19684FF6FF0319403E4B5D
:100400000B4343EA02213B4B196000BF3848806927
:1004100040F00100364988613848406820F0E060CB
:10042000364948600846406840F0007048603048EF
:10043000806940F004002E4988613148006840F02E
:1004400010002F4908600846006820F00700086087
:100450000846006840F0020008602548006840F443
:1004600080302349086000BF2148006800F4003054
:10047000B0F5003FF8D11E48406840F480301C4978
:1004800048600846406848600846406840F4E0100C
:1004900048600846006840F08070086000BF14485B
:1004A000006800F00070B0F1007FF8D1104840689B
:1004B0000F4948600846406840F48060486008463C
:1004C000406848600846406840F00200486000BF4D
:1004D0000748406800F00C000828F9D109480A498B
:1004E00008600348806940F0200001498861704736
:1004F000001002400CED00E00000FA050000014091
:100500000020024000A24A04000000202C05000840
:100510000000002004000000280100083005000849
:100520000400002064060000440100080024F400D8
:04000005080000ED02
:00000001FF
