:020000040800F2
:100000007006002089010008910100089301000892
:100010009501000897010008990100080000000000
:100020000000000000000000000000009B0100082C
:100030009D010008000000009F0100086D020008FB
:10004000A3010008A3010008A3010008A301000800
:10005000A3010008A3010008A3010008A3010008F0
:10006000A3010008A3010008A3010008A3010008E0
:10007000A3010008A3010008A3010008A3010008D0
:10008000A3010008A3010008A3010008A3010008C0
:10009000A3010008A3010008A3010008A3010008B0
:1000A000A3010008A3010008A3010008A3010008A0
:1000B000A3010008A3010008A3010008A301000890
:1000C000A3010008A3010008A3010008A301000880
:1000D000A3010008A3010008A3010008A301000870
:1000E000A3010008A3010008A301000800F002F822
:1000F00000F03AF80AA090E8000C82448344AAF188
:100100000107DA4501D100F02FF8AFF2090EBAE885
:100110000F0013F0010F18BFFB1A43F0010318473B
:10012000C8080000E8080000103A24BF78C878C169
:10013000FAD8520724BF30C830C144BF04680C60ED
:10014000704700000023002400250026103A28BF35
:1001500078C1FBD8520728BF30C148BF0B60704739
:100160001FB51FBD10B510BD00F031F81146FFF7E7
:10017000F7FF00F02BFA00F04FF803B4FFF7F2FF9F
:1001800003BC00F057F800000948804709480047C1
:10019000FEE7FEE7FEE7FEE7FEE7FEE7FEE7FEE737
:1001A000FEE7FEE704480549054A064B7047000094
:1001B0007D020008ED00000870000020700600209D
:1001C000700200207002002070477047704775462B
:1001D00000F02CF8AE4605006946534620F00700B3
:1001E000854618B020B5FFF7DDFFBDE820404FF091
:1001F00000064FF000074FF000084FF0000B21F011
:100200000701AC46ACE8C009ACE8C009ACE8C009DD
:10021000ACE8C0098D46704710B50446AFF30080C6
:100220002046BDE81040FFF7A8BF00000048704717
:100230000C00002001491820ABBEFEE7260002009A
:100240007047000010B5002807DA0A07140E054AA7
:1002500000F00F031B1FD45403E00A07130E024AD9
:10026000135410BD18ED00E000E400E002480068FF
:10027000401C0149086070470400002070470000DE
:100280002DE9F041314800684FF47A71B0FBF1F488
:10029000601EB0F1807F00D30FE0601E4FF0E021C0
:1002A00048610F214FF0FF30FFF7CCFF00204FF0E7
:1002B000E02188610720086100BF00BF2449096868
:1002C000C1F30220002213460146C1F10707042FA3
:1002D00001D9042701E0C1F107073E460F1D072F92
:1002E00001D2002700E0CF1E3D460127B7407F1E08
:1002F0001740AF404FF0010C0CFA05FCACF1010CBB
:100300000CEA030C47EA0C0421464FF0FF30FFF7DC
:1003100099FF0F48F030006820F080700C49F031F0
:1003200008600846006840F08070086000200949B5
:1003300048600846006820F0010008600846006830
:1003400040F001000860BDE8F081000000000020DE
:100350000CED00E0001000E0044A116800BF034A01
:100360001268521A8242FAD370470000040000203B
:1003700030B505460C4614B925F0010503E0012C03
:1003800001D145F001050948056034B900BF0848AE
:1003900000F012F80028FAD007E0012C05D100BFC8
:1003A000044800F009F80028FAD030BD105400408D
:1003B000820007000200030010B5014606480268EB
:1003C000001D036842EA034404EA0100884201D1A7
:1003D000012010BD0020FCE71454004070B55B4DB7
:1003E000ED6945F40015594EF56104205849594D01
:1003F000B1FBF5F5ABB20024574A584D2D6805F016
:100400000105564E356035462D6825F008053560E6
:1004100035462D6825F002053560351D2D6825F01F
:100420003F05361D356035462D681D433560351F47
:100430002D6825F48065361F3560484D1C352D68C4
:1004400025F48045454E1C363560444D08352D68F1
:1004500025F40045414E0836356035462D68356037
:100460001546AA4218D85500B1FBF5F5A8B2C0F35D
:100470000B05042D00DA0420384D1C352D6825F4B9
:100480000045364E1C36356035462D6805433560CF
:100490005D1C361D35603CE06CB902EB4205B1FBDA
:1004A000F5F5A8B22D4D1C352D6825F480452B4E51
:1004B0001C36356010E0012C0ED102EBC20505EBB5
:1004C0000215B1FBF5F5A8B2244D1C352D6845F495
:1004D0008045224E1C363560C0F30B05012D01DA34
:1004E00040F001001D4D1C352D6845F400451B4EA4
:1004F0001C36356035462D68054335604FF49675DA
:100500005D434FF47A7695FBF6F56D1C134E20365D
:100510003560124D2D6845F00105104E35600B4DCC
:10052000AD6945F00805094EB5610D4D2D6825F002
:100530004C550B4E356035462D6845F008553560F5
:1005400035462D6845F04C45356070BD00100240C1
:100550000051250240420F00A086010000540040D7
:10056000000C014000B50648006840F48070044962
:10057000086000BF0348FFF71FFF0028FAD000BD46
:1005800000540040010003000748006840F4007078
:100590000549086000BF04481430006800F01000EE
:1005A0001028F8D0704700000054004010B50446F1
:1005B0000448046000BF0448FFF7FEFE0028FAD09C
:1005C00010BD0000105400408400070000F078F9CE
:1005D00000F08AF8012000F021F80021012000F04D
:1005E000F5F806A000F002F90121084600F0EEF847
:1005F00006A000F0FBF800BFFEE7000053544D33A7
:1006000032463130334338543600000041524D20D9
:10061000436F72746578204D3300000010B50446B6
:1006200034B10948007840F008000749087005E037
:100630000548007820F00800034908700248017856
:10064000272000F0E0F810BD0800002010B5044697
:10065000204600F025F810BD10B5012000F004F888
:100660000220FFF779FE10BD10B504460B48007854
:1006700020F00100094908700846007820F00200C7
:10068000087008460178272000F0BDF8201100F01E
:10069000CBF8204600F0C8F810BD0000080000208C
:1006A00010B504460B48007840F001000949087075
:1006B0000846007820F002000870084601782720DC
:1006C00000F0A1F8201100F0AFF8204600F0ACF8DF
:1006D00010BD000008000020002002E000BF411C07
:1006E000C8B2FF28FADB704710B5FFF7C9FDFFF766
:1006F00075FE3220FFF730FE1D48007820F008001C
:100700001B4908700846007820F001000870084670
:10071000007820F0020008700846007820F00400FD
:10072000087008460178272000F06DF8032000F0DB
:100730007BF80520FFF710FE032000F075F8052078
:10074000FFF70AFE032000F06FF80120FFF704FE18
:10075000022000F069F82820FFF786FF0C20FFF741
:1007600083FFFFF779FF0620FFF77EFF10BD000033
:100770000800002010B51448007820F00400124949
:10078000087008460178272000F03DF8FFF7A4FF25
:100790000D48007840F004000B49087008460178C5
:1007A000272000F030F8FFF797FF0748007820F087
:1007B00004000549087008460178272000F023F856
:1007C000FFF78AFF10BD00000800002038B504467E
:1007D0000D4605A0006800901DF805102144C8B220
:1007E000FFF742FF38BD000080C094D470B50446C6
:1007F000002504E0605DFFF729FF681CC5B2605D5D
:100800000028F7D170BD70B504460D46FFF7AAFE6B
:100810006106080E0021FFF7ABFD2846FFF7C6FE74
:10082000FFF7B2FE70BD000010B5044604F00100F1
:1008300030B12248007840F010002049087005E0EF
:100840001E48007820F010001C490870C4F34000D6
:1008500030B11A48007840F020001849087005E0CF
:100860001648007820F0200014490870C4F3800076
:1008700030B11248007840F040001049087005E09F
:100880000E48007820F040000C490870C4F3C00006
:1008900030B10A48007840F080000849087005E04F
:1008A0000648007820F08000044908700348017869
:1008B0002720FFF7A8FFFFF75DFF10BD080000200D
:1008C0004248C06940F080504049C8610420024657
:1008D0003F4B19684FF6FF0319403E4B0B4343EA69
:1008E00002213B4B196000BF3848806940F001008D
:1008F000364988613848406820F0E06036494860F1
:100900000846406840F0007048603048806940F018
:1009100004002E4988613148006840F010002F49DA
:1009200008600846006820F0070008600846006874
:1009300040F0020008602548006840F480302349F8
:10094000086000BF2148006800F40030B0F5003FA7
:10095000F8D11E48406840F480301C494860084681
:10096000406848600846406840F4E0104860084627
:10097000006840F08070086000BF1448006800F014
:100980000070B0F1007FF8D1104840680F4948600E
:100990000846406840F48060486008464068486007
:1009A0000846406840F00200486000BF07484068C1
:1009B00000F00C000828F9D109480A4908600348EA
:1009C000806940F0200001498861704700100240B2
:1009D0000CED00E00000FA0500000140002002409C
:1009E00000A24A0400000020080A000800000020BD
:1009F0000C00000028010008140A00080C00002068
:100A000064060000440100080024F4000000000017
:040A100000000000E2
:04000005080000ED02
:00000001FF
